{
  "contractName": "ChainOfLife",
  "abi": [
    {
      "constant": true,
      "inputs": [
        {
          "name": "",
          "type": "bytes32"
        }
      ],
      "name": "games",
      "outputs": [
        {
          "name": "alice",
          "type": "address"
        },
        {
          "name": "bob",
          "type": "address"
        },
        {
          "name": "bobHash",
          "type": "bytes32"
        },
        {
          "name": "state",
          "type": "uint256"
        },
        {
          "name": "time",
          "type": "uint256"
        }
      ],
      "payable": false,
      "stateMutability": "view",
      "type": "function"
    },
    {
      "anonymous": false,
      "inputs": [
        {
          "indexed": true,
          "name": "gameId",
          "type": "bytes32"
        },
        {
          "indexed": true,
          "name": "alice",
          "type": "address"
        }
      ],
      "name": "StartGame",
      "type": "event"
    },
    {
      "anonymous": false,
      "inputs": [
        {
          "indexed": true,
          "name": "gameId",
          "type": "bytes32"
        },
        {
          "indexed": true,
          "name": "bob",
          "type": "address"
        },
        {
          "indexed": false,
          "name": "field",
          "type": "bytes32[]"
        }
      ],
      "name": "Join",
      "type": "event"
    },
    {
      "constant": false,
      "inputs": [
        {
          "name": "_hash",
          "type": "bytes32"
        }
      ],
      "name": "register",
      "outputs": [],
      "payable": false,
      "stateMutability": "nonpayable",
      "type": "function"
    },
    {
      "constant": false,
      "inputs": [
        {
          "name": "_gameId",
          "type": "bytes32"
        },
        {
          "name": "_field",
          "type": "bytes32[]"
        }
      ],
      "name": "join",
      "outputs": [],
      "payable": false,
      "stateMutability": "nonpayable",
      "type": "function"
    },
    {
      "constant": true,
      "inputs": [
        {
          "name": "_field",
          "type": "bytes32[]"
        }
      ],
      "name": "hashField",
      "outputs": [
        {
          "name": "hash",
          "type": "bytes32"
        }
      ],
      "payable": false,
      "stateMutability": "pure",
      "type": "function"
    }
  ],
  "bytecode": "0x608060405234801561001057600080fd5b50610603806100206000396000f300608060405260043610610062576000357c0100000000000000000000000000000000000000000000000000000000900463ffffffff16806321459997146100675780634fa2fc3a146100e9578063e1fa8e841461015d578063f579f8821461018e575b600080fd5b34801561007357600080fd5b506100cb6004803603810190808035906020019082018035906020019080806020026020016040519081016040528093929190818152602001838360200280828437820191505050505050919291929050505061024f565b60405180826000191660001916815260200191505060405180910390f35b3480156100f557600080fd5b5061015b600480360381019080803560001916906020019092919080359060200190820180359060200190808060200260200160405190810160405280939291908181526020018383602002808284378201915050505050509192919290505050610271565b005b34801561016957600080fd5b5061018c60048036038101908080356000191690602001909291905050506103e8565b005b34801561019a57600080fd5b506101bd6004803603810190808035600019169060200190929190505050610561565b604051808673ffffffffffffffffffffffffffffffffffffffff1673ffffffffffffffffffffffffffffffffffffffff1681526020018573ffffffffffffffffffffffffffffffffffffffff1673ffffffffffffffffffffffffffffffffffffffff16815260200184600019166000191681526020018381526020018281526020019550505050505060405180910390f35b600081600081518110151561026057fe5b906020019060200201519050919050565b600080600084600019166000191681526020019081526020016000209050600073ffffffffffffffffffffffffffffffffffffffff168160000160009054906101000a900473ffffffffffffffffffffffffffffffffffffffff1673ffffffffffffffffffffffffffffffffffffffff16141515156102ef57600080fd5b6000816003015414151561030257600080fd5b3373ffffffffffffffffffffffffffffffffffffffff1683600019167f0f5ab78775f19459056f610a304863b51d2981ffd9bf6717eb4cdc8de9735fc7846040518080602001828103825283818151815260200191508051906020019060200280838360005b83811015610383578082015181840152602081019050610368565b505050509050019250505060405180910390a360018160030181905550338160010160006101000a81548173ffffffffffffffffffffffffffffffffffffffff021916908373ffffffffffffffffffffffffffffffffffffffff160217905550505050565b60a0604051908101604052803373ffffffffffffffffffffffffffffffffffffffff168152602001600073ffffffffffffffffffffffffffffffffffffffff1681526020016000600102600019168152602001600081526020016000815250600080836000191660001916815260200190815260200160002060008201518160000160006101000a81548173ffffffffffffffffffffffffffffffffffffffff021916908373ffffffffffffffffffffffffffffffffffffffff16021790555060208201518160010160006101000a81548173ffffffffffffffffffffffffffffffffffffffff021916908373ffffffffffffffffffffffffffffffffffffffff1602179055506040820151816002019060001916905560608201518160030155608082015181600401559050503373ffffffffffffffffffffffffffffffffffffffff1681600019167f3b4b54d9ebefe9b1bca4bd076f5f41ef908a2cf1fa993c37ad68196529b8462160405160405180910390a350565b60006020528060005260406000206000915090508060000160009054906101000a900473ffffffffffffffffffffffffffffffffffffffff16908060010160009054906101000a900473ffffffffffffffffffffffffffffffffffffffff169080600201549080600301549080600401549050855600a165627a7a7230582090b218d5fb95f82ceafcf33a83373b007f8739b40c7dffca80a1a81ccdcb1d070029",
  "source": "pragma solidity ^0.4.24;\n\ncontract ChainOfLife {\n\n  event StartGame(bytes32 indexed gameId, address indexed alice);\n  event Join(bytes32 indexed gameId, address indexed bob, bytes32[] field);\n\n  struct Game{\n    address alice;\n    address bob;\n\n    bytes32 bobHash;\n\n    // 0 only hash\n    // 1 hash and bob data\n    // 2 resolved alice wins \n    // 3 resolved bob wins\n    // 4 challenged\n    // 5 finalized\n    uint256 state;\n    uint256 time;\n  }\n\n  mapping (bytes32 => Game) public games;\n\n  function register(bytes32 _hash) public {\n    games[_hash] = Game(msg.sender, 0, 0, 0, 0);\n    emit StartGame(_hash, msg.sender);\n  }\n\n  function join(bytes32 _gameId, bytes32[] _field) public {\n    Game storage game = games[_gameId];\n    require(game.alice != address(0));\n    require(game.state == 0);\n    emit Join(_gameId, msg.sender, _field);\n    game.state = 1;\n    game.bob = msg.sender;\n  }\n\n  function hashField(bytes32[] _field) pure returns (bytes32 hash) {\n    // TODO: \n    return _field[0];\n  }\n\n}",
  "sourcePath": "/Users/jankremser/Documents/Projects/cryptolife/CryptoLife/chainOfLife/contracts/ChainOfLife.sol",
  "compiler": {
    "name": "solc",
    "version": "0.4.24+commit.e67f0147.Emscripten.clang"
  },
  "schemaVersion": "2.0.1",
  "updatedAt": "2018-10-27T12:19:04.975Z"
}