{
  "contractName": "ChainOfLife",
  "abi": [
    {
      "constant": true,
      "inputs": [
        {
          "name": "",
          "type": "address"
        }
      ],
      "name": "players",
      "outputs": [
        {
          "name": "games",
          "type": "uint256"
        },
        {
          "name": "wins",
          "type": "uint256"
        }
      ],
      "payable": false,
      "stateMutability": "view",
      "type": "function"
    },
    {
      "constant": true,
      "inputs": [
        {
          "name": "",
          "type": "bytes32"
        }
      ],
      "name": "games",
      "outputs": [
        {
          "name": "alice",
          "type": "address"
        },
        {
          "name": "bob",
          "type": "address"
        },
        {
          "name": "bobHash",
          "type": "bytes32"
        },
        {
          "name": "state",
          "type": "uint256"
        },
        {
          "name": "time",
          "type": "uint256"
        }
      ],
      "payable": false,
      "stateMutability": "view",
      "type": "function"
    },
    {
      "inputs": [
        {
          "name": "_timeout",
          "type": "uint256"
        }
      ],
      "payable": false,
      "stateMutability": "nonpayable",
      "type": "constructor"
    },
    {
      "anonymous": false,
      "inputs": [
        {
          "indexed": true,
          "name": "gameId",
          "type": "bytes32"
        },
        {
          "indexed": true,
          "name": "playerOne",
          "type": "address"
        }
      ],
      "name": "StartGame",
      "type": "event"
    },
    {
      "anonymous": false,
      "inputs": [
        {
          "indexed": true,
          "name": "gameId",
          "type": "bytes32"
        },
        {
          "indexed": true,
          "name": "playerTwo",
          "type": "address"
        },
        {
          "indexed": false,
          "name": "PlayerTwoField",
          "type": "bytes32[]"
        }
      ],
      "name": "JoinGame",
      "type": "event"
    },
    {
      "anonymous": false,
      "inputs": [
        {
          "indexed": true,
          "name": "gameId",
          "type": "bytes32"
        },
        {
          "indexed": true,
          "name": "winner",
          "type": "address"
        },
        {
          "indexed": false,
          "name": "PLayerOneField",
          "type": "bytes32[]"
        }
      ],
      "name": "ResolveGame",
      "type": "event"
    },
    {
      "anonymous": false,
      "inputs": [
        {
          "indexed": true,
          "name": "gameId",
          "type": "bytes32"
        },
        {
          "indexed": true,
          "name": "winner",
          "type": "address"
        },
        {
          "indexed": false,
          "name": "message",
          "type": "string"
        }
      ],
      "name": "FinalizeGame",
      "type": "event"
    },
    {
      "anonymous": false,
      "inputs": [
        {
          "indexed": true,
          "name": "gameId",
          "type": "bytes32"
        }
      ],
      "name": "CancelGame",
      "type": "event"
    },
    {
      "constant": false,
      "inputs": [
        {
          "name": "_hash",
          "type": "bytes32"
        }
      ],
      "name": "register",
      "outputs": [],
      "payable": false,
      "stateMutability": "nonpayable",
      "type": "function"
    },
    {
      "constant": false,
      "inputs": [
        {
          "name": "_gameId",
          "type": "bytes32"
        },
        {
          "name": "_field",
          "type": "bytes32[]"
        }
      ],
      "name": "join",
      "outputs": [],
      "payable": false,
      "stateMutability": "nonpayable",
      "type": "function"
    },
    {
      "constant": false,
      "inputs": [
        {
          "name": "_gameId",
          "type": "bytes32"
        },
        {
          "name": "_field",
          "type": "bytes32[]"
        },
        {
          "name": "_isWinner",
          "type": "bool"
        }
      ],
      "name": "resolve",
      "outputs": [],
      "payable": false,
      "stateMutability": "nonpayable",
      "type": "function"
    },
    {
      "constant": false,
      "inputs": [
        {
          "name": "_gameId",
          "type": "bytes32"
        }
      ],
      "name": "finalize",
      "outputs": [],
      "payable": false,
      "stateMutability": "nonpayable",
      "type": "function"
    }
  ],
  "bytecode": "0x608060405234801561001057600080fd5b506040516020806119158339810180604052810190808051906020019092919050505080600081905550506118cb8061004a6000396000f300608060405260043610610078576000357c0100000000000000000000000000000000000000000000000000000000900463ffffffff1680634fa2fc3a1461007d5780638322f010146100f157806392584d8014610171578063e1fa8e84146101a2578063e2eb41ff146101d3578063f579f88214610231575b600080fd5b34801561008957600080fd5b506100ef6004803603810190808035600019169060200190929190803590602001908201803590602001908080602002602001604051908101604052809392919081815260200183836020028082843782019150505050505091929192905050506102f2565b005b3480156100fd57600080fd5b5061016f600480360381019080803560001916906020019092919080359060200190820180359060200190808060200260200160405190810160405280939291908181526020018383602002808284378201915050505050509192919290803515159060200190929190505050610597565b005b34801561017d57600080fd5b506101a06004803603810190808035600019169060200190929190505050610965565b005b3480156101ae57600080fd5b506101d16004803603810190808035600019169060200190929190505050611568565b005b3480156101df57600080fd5b50610214600480360381019080803573ffffffffffffffffffffffffffffffffffffffff1690602001909291905050506117e9565b604051808381526020018281526020019250505060405180910390f35b34801561023d57600080fd5b50610260600480360381019080803560001916906020019092919050505061180d565b604051808673ffffffffffffffffffffffffffffffffffffffff1673ffffffffffffffffffffffffffffffffffffffff1681526020018573ffffffffffffffffffffffffffffffffffffffff1673ffffffffffffffffffffffffffffffffffffffff16815260200184600019166000191681526020018381526020018281526020019550505050505060405180910390f35b60006001600084600019166000191681526020019081526020016000209050600073ffffffffffffffffffffffffffffffffffffffff168160000160009054906101000a900473ffffffffffffffffffffffffffffffffffffffff1673ffffffffffffffffffffffffffffffffffffffff16141515156103da576040517f08c379a00000000000000000000000000000000000000000000000000000000081526004018080602001828103825260128152602001807f47616d6520646f65736e2774206578697374000000000000000000000000000081525060200191505060405180910390fd5b600081600301541415156103ed57600080fd5b60018160030181905550338160010160006101000a81548173ffffffffffffffffffffffffffffffffffffffff021916908373ffffffffffffffffffffffffffffffffffffffff1602179055508160405160200180828051906020019060200280838360005b8381101561046e578082015181840152602081019050610453565b505050509050019150506040516020818303038152906040526040518082805190602001908083835b6020831015156104bc5780518252602082019150602081019050602083039250610497565b6001836020036101000a03801982511681845116808217855250505050505090500191505060405180910390208160020181600019169055504381600401819055503373ffffffffffffffffffffffffffffffffffffffff1683600019167f80acdf53cd3dfceb84d7b35708853cb5ac032f6ad595525deedc82dec248c72c846040518080602001828103825283818151815260200191508051906020019060200280838360005b8381101561057f578082015181840152602081019050610564565b505050509050019250505060405180910390a3505050565b60008060008460405160200180828051906020019060200280838360005b838110156105d05780820151818401526020810190506105b5565b505050509050019150506040516020818303038152906040526040518082805190602001908083835b60208310151561061e57805182526020820191506020810190506020830392506105f9565b6001836020036101000a03801982511681845116808217855250505050505090500191505060405180910390209250826000191686600019161415156106cc576040517f08c379a00000000000000000000000000000000000000000000000000000000081526004018080602001828103825260198152602001807f416c6963652068617368657320646f206e6f74206d617463680000000000000081525060200191505060405180910390fd5b60016000876000191660001916815260200190815260200160002091508160000160009054906101000a900473ffffffffffffffffffffffffffffffffffffffff1673ffffffffffffffffffffffffffffffffffffffff163373ffffffffffffffffffffffffffffffffffffffff161415156107d6576040517f08c379a000000000000000000000000000000000000000000000000000000000815260040180806020018281038252603d8152602001807f5265736f6c7665206d657373616765206973206e6f742073656e74206279207081526020017f6c617965722031206f722067616d6520646f65736e277420657869737400000081525060400191505060405180910390fd5b60018260030154141515610852576040517f08c379a00000000000000000000000000000000000000000000000000000000081526004018080602001828103825260108152602001807f57726f6e672067616d652073746174650000000000000000000000000000000081525060200191505060405180910390fd5b831561088e578160000160009054906101000a900473ffffffffffffffffffffffffffffffffffffffff169050600282600301819055506108c0565b8160010160009054906101000a900473ffffffffffffffffffffffffffffffffffffffff169050600382600301819055505b4382600401819055508073ffffffffffffffffffffffffffffffffffffffff1686600019167f0f378cb065b12fc00cd1781402a2c766a6575334b055a935cc25d9ed8db36672876040518080602001828103825283818151815260200191508051906020019060200280838360005b8381101561094a57808201518184015260208101905061092f565b505050509050019250505060405180910390a3505050505050565b60008060606001600085600019166000191681526020019081526020016000209250600083600301541480156109ea57508260000160009054906101000a900473ffffffffffffffffffffffffffffffffffffffff1673ffffffffffffffffffffffffffffffffffffffff163373ffffffffffffffffffffffffffffffffffffffff16145b15610b555760a060405190810160405280600073ffffffffffffffffffffffffffffffffffffffff168152602001600073ffffffffffffffffffffffffffffffffffffffff168152602001600060010260001916815260200160008152602001600081525060016000866000191660001916815260200190815260200160002060008201518160000160006101000a81548173ffffffffffffffffffffffffffffffffffffffff021916908373ffffffffffffffffffffffffffffffffffffffff16021790555060208201518160010160006101000a81548173ffffffffffffffffffffffffffffffffffffffff021916908373ffffffffffffffffffffffffffffffffffffffff16021790555060408201518160020190600019169055606082015181600301556080820151816004015590505083600019167febdede5439e70982d23a0752371556c3f2ae22bac80056a079f65911952a1e7c60405160405180910390a2611562565b600c6000540283600401540143111515610bd7576040517f08c379a000000000000000000000000000000000000000000000000000000000815260040180806020018281038252601c8152602001807f54696d656f757420686173206e6f74206265656e20726561636865640000000081525060200191505060405180910390fd5b600183600301541480610bee575060028360030154145b80610bfd575060038360030154145b1515610c71576040517f08c379a00000000000000000000000000000000000000000000000000000000081526004018080602001828103825260108152602001807f57726f6e672067616d652073746174650000000000000000000000000000000081525060200191505060405180910390fd5b8260000160009054906101000a900473ffffffffffffffffffffffffffffffffffffffff1673ffffffffffffffffffffffffffffffffffffffff163373ffffffffffffffffffffffffffffffffffffffff161480610d1e57508260010160009054906101000a900473ffffffffffffffffffffffffffffffffffffffff1673ffffffffffffffffffffffffffffffffffffffff163373ffffffffffffffffffffffffffffffffffffffff16145b1515610db8576040517f08c379a00000000000000000000000000000000000000000000000000000000081526004018080602001828103825260288152602001807f46696e616c697a65206d657373616765206e6f742073656e642073656e74206281526020017f7920706c6179657200000000000000000000000000000000000000000000000081525060400191505060405180910390fd5b600183600301541415610fbd578260010160009054906101000a900473ffffffffffffffffffffffffffffffffffffffff169150610e666001600260008660000160009054906101000a900473ffffffffffffffffffffffffffffffffffffffff1673ffffffffffffffffffffffffffffffffffffffff1673ffffffffffffffffffffffffffffffffffffffff1681526020019081526020016000206000015461188390919063ffffffff16565b50610ee16001600260008660010160009054906101000a900473ffffffffffffffffffffffffffffffffffffffff1673ffffffffffffffffffffffffffffffffffffffff1673ffffffffffffffffffffffffffffffffffffffff1681526020019081526020016000206000015461188390919063ffffffff16565b50610f5c6001600260008660010160009054906101000a900473ffffffffffffffffffffffffffffffffffffffff1673ffffffffffffffffffffffffffffffffffffffff1673ffffffffffffffffffffffffffffffffffffffff1681526020019081526020016000206001015461188390919063ffffffff16565b50606060405190810160405280602881526020017f506c6179657220322077696e732064756520746f20504c61796572203120696e81526020017f616374697669747900000000000000000000000000000000000000000000000081525090505b60028360030154141561119b578260000160009054906101000a900473ffffffffffffffffffffffffffffffffffffffff16915061106b6001600260008660000160009054906101000a900473ffffffffffffffffffffffffffffffffffffffff1673ffffffffffffffffffffffffffffffffffffffff1673ffffffffffffffffffffffffffffffffffffffff1681526020019081526020016000206000015461188390919063ffffffff16565b506110e66001600260008660010160009054906101000a900473ffffffffffffffffffffffffffffffffffffffff1673ffffffffffffffffffffffffffffffffffffffff1673ffffffffffffffffffffffffffffffffffffffff1681526020019081526020016000206000015461188390919063ffffffff16565b506111616001600260008660000160009054906101000a900473ffffffffffffffffffffffffffffffffffffffff1673ffffffffffffffffffffffffffffffffffffffff1673ffffffffffffffffffffffffffffffffffffffff1681526020019081526020016000206001015461188390919063ffffffff16565b506040805190810160405280600d81526020017f506c6179657220312077696e730000000000000000000000000000000000000081525090505b600383600301541415611379578260010160009054906101000a900473ffffffffffffffffffffffffffffffffffffffff1691506112496001600260008660000160009054906101000a900473ffffffffffffffffffffffffffffffffffffffff1673ffffffffffffffffffffffffffffffffffffffff1673ffffffffffffffffffffffffffffffffffffffff1681526020019081526020016000206000015461188390919063ffffffff16565b506112c46001600260008660010160009054906101000a900473ffffffffffffffffffffffffffffffffffffffff1673ffffffffffffffffffffffffffffffffffffffff1673ffffffffffffffffffffffffffffffffffffffff1681526020019081526020016000206000015461188390919063ffffffff16565b5061133f6001600260008660010160009054906101000a900473ffffffffffffffffffffffffffffffffffffffff1673ffffffffffffffffffffffffffffffffffffffff1673ffffffffffffffffffffffffffffffffffffffff1681526020019081526020016000206001015461188390919063ffffffff16565b506040805190810160405280600d81526020017f506c6179657220322077696e730000000000000000000000000000000000000081525090505b60a060405190810160405280600073ffffffffffffffffffffffffffffffffffffffff168152602001600073ffffffffffffffffffffffffffffffffffffffff168152602001600060010260001916815260200160008152602001600081525060016000866000191660001916815260200190815260200160002060008201518160000160006101000a81548173ffffffffffffffffffffffffffffffffffffffff021916908373ffffffffffffffffffffffffffffffffffffffff16021790555060208201518160010160006101000a81548173ffffffffffffffffffffffffffffffffffffffff021916908373ffffffffffffffffffffffffffffffffffffffff1602179055506040820151816002019060001916905560608201518160030155608082015181600401559050508173ffffffffffffffffffffffffffffffffffffffff1684600019167f32522deb0671965aa34c5878abbd8e8861b08bbcd2a8a1a0419c5502f495b2de836040518080602001828103825283818151815260200191508051906020019080838360005b8381101561152757808201518184015260208101905061150c565b50505050905090810190601f1680156115545780820380516001836020036101000a031916815260200191505b509250505060405180910390a35b50505050565b600073ffffffffffffffffffffffffffffffffffffffff1660016000836000191660001916815260200190815260200160002060000160009054906101000a900473ffffffffffffffffffffffffffffffffffffffff1673ffffffffffffffffffffffffffffffffffffffff16141515611670576040517f08c379a000000000000000000000000000000000000000000000000000000000815260040180806020018281038252602f8152602001807f47616d652077697468207468652073616d6520696e697469616c206669656c6481526020017f20616c726561647920657869737473000000000000000000000000000000000081525060400191505060405180910390fd5b60a0604051908101604052803373ffffffffffffffffffffffffffffffffffffffff168152602001600073ffffffffffffffffffffffffffffffffffffffff1681526020016000600102600019168152602001600081526020014381525060016000836000191660001916815260200190815260200160002060008201518160000160006101000a81548173ffffffffffffffffffffffffffffffffffffffff021916908373ffffffffffffffffffffffffffffffffffffffff16021790555060208201518160010160006101000a81548173ffffffffffffffffffffffffffffffffffffffff021916908373ffffffffffffffffffffffffffffffffffffffff1602179055506040820151816002019060001916905560608201518160030155608082015181600401559050503373ffffffffffffffffffffffffffffffffffffffff1681600019167f3b4b54d9ebefe9b1bca4bd076f5f41ef908a2cf1fa993c37ad68196529b8462160405160405180910390a350565b60026020528060005260406000206000915090508060000154908060010154905082565b60016020528060005260406000206000915090508060000160009054906101000a900473ffffffffffffffffffffffffffffffffffffffff16908060010160009054906101000a900473ffffffffffffffffffffffffffffffffffffffff16908060020154908060030154908060040154905085565b6000818301905082811015151561189657fe5b809050929150505600a165627a7a723058208cb4f70d8bf48ab1abb9378c6a11b188b142eca0fb30a7ba2b7fbe5cd692e2430029",
  "source": "pragma solidity ^0.4.24;\n\nimport \"openzeppelin-solidity/contracts/math/SafeMath.sol\";\n\ncontract ChainOfLife {\n  using SafeMath for uint256;\n\n  event StartGame(bytes32 indexed gameId, address indexed playerOne);\n  event JoinGame(bytes32 indexed gameId, address indexed playerTwo, bytes32[] PlayerTwoField);\n  event ResolveGame(bytes32 indexed gameId, address indexed winner, bytes32[] PLayerOneField);\n  event FinalizeGame(bytes32 indexed gameId, address indexed winner, string message);\n  event CancelGame(bytes32 indexed gameId);\n\n  uint timeout;\n\n  struct Game{\n    address alice;\n    address bob;\n\n    bytes32 bobHash;\n\n    // 0 only hash\n    // 1 hash and bob data\n    // 2 resolved alice wins \n    // 3 resolved bob wins\n    // 4 challenged\n    // 5 finalized\n    uint256 state;\n    uint256 time;\n  }\n\n  struct PlayerStats{\n    uint games;\n    uint wins;\n  }\n\n  mapping (bytes32 => Game) public games;\n  mapping (address => PlayerStats) public players;\n\n  constructor (uint _timeout) public {\n    timeout = _timeout;\n  }\n  \n  function register(bytes32 _hash) public {\n    require(games[_hash].alice == address(0), \"Game with the same initial field already exists\");\n    games[_hash] = Game(msg.sender, 0, 0, 0, block.number);\n    \n    emit StartGame(_hash, msg.sender);\n  }\n\n  function join(bytes32 _gameId, bytes32[] _field) public {\n    Game storage game = games[_gameId];\n    require(game.alice != address(0), \"Game doesn't exist\");\n    require(game.state == 0);\n    game.state = 1;\n    game.bob = msg.sender;\n    game.bobHash = keccak256(abi.encodePacked(_field));\n    game.time = block.number;\n\n    emit JoinGame(_gameId, msg.sender, _field);\n  }\n\n  function resolve(bytes32 _gameId, bytes32[] _field, bool _isWinner) public {\n    bytes32 fieldHash = keccak256(abi.encodePacked(_field));\n    require(_gameId == fieldHash, \"Alice hashes do not match\");\n    Game storage game = games[_gameId];\n    require(msg.sender == game.alice, \"Resolve message is not sent by player 1 or game doesn't exist\");\n    require(game.state == 1, \"Wrong game state\");\n\n    address winner;\n    if (_isWinner){\n      winner = game.alice;\n      game.state = 2;      \n    } else {\n      winner = game.bob;\n      game.state = 3;\n    }\n    game.time = block.number;\n\n    emit ResolveGame(_gameId, winner, _field);\n  }\n\n  function finalize(bytes32 _gameId) public {\n    Game storage game = games[_gameId];\n    if(game.state == 0 && msg.sender == game.alice) {\n      games[_gameId] = Game(0,0,0,0,0);\n      emit CancelGame(_gameId);\n      return;      \n    }\n\n    require(block.number > game.time + timeout * 12, \"Timeout has not been reached\");\n    require(game.state == 1 || game.state == 2 || game.state == 3, \"Wrong game state\");\n    require(msg.sender == game.alice || msg.sender == game.bob, \"Finalize message not send sent by player\");\n\n    address winner;\n    string memory message;\n    if(game.state == 1) {\n      winner = game.bob;\n      players[game.alice].games.add(1);\n      players[game.bob].games.add(1);\n      players[game.bob].wins.add(1);\n      message = \"Player 2 wins due to PLayer 1 inactivity\";\n    }\n    if(game.state == 2) {\n      winner = game.alice;\n      players[game.alice].games.add(1);\n      players[game.bob].games.add(1);\n      players[game.alice].wins.add(1);\n      message = \"Player 1 wins\";\n    }\n    if(game.state == 3) {\n      winner = game.bob;\n      players[game.alice].games.add(1);\n      players[game.bob].games.add(1);\n      players[game.bob].wins.add(1);\n      message = \"Player 2 wins\";\n    }\n    games[_gameId] = Game(0,0,0,0,0);\n    emit FinalizeGame(_gameId, winner,message);    \n  }\n}",
  "sourcePath": "/Users/jankremser/Documents/Projects/cryptolife/CryptoLife/chainOfLife/contracts/ChainOfLife.sol",
  "compiler": {
    "name": "solc",
    "version": "0.4.24+commit.e67f0147.Emscripten.clang"
  },
  "schemaVersion": "2.0.1",
  "updatedAt": "2018-10-27T17:23:47.252Z"
}