{
  "contractName": "Parameterizer",
  "abi": [
    {
      "constant": true,
      "inputs": [
        {
          "name": "",
          "type": "bytes32"
        }
      ],
      "name": "params",
      "outputs": [
        {
          "name": "",
          "type": "uint256"
        }
      ],
      "payable": false,
      "stateMutability": "view",
      "type": "function"
    },
    {
      "inputs": [
        {
          "name": "_parameters",
          "type": "uint256[]"
        }
      ],
      "payable": false,
      "stateMutability": "nonpayable",
      "type": "constructor"
    },
    {
      "constant": true,
      "inputs": [
        {
          "name": "_name",
          "type": "string"
        }
      ],
      "name": "get",
      "outputs": [
        {
          "name": "value",
          "type": "uint256"
        }
      ],
      "payable": false,
      "stateMutability": "view",
      "type": "function"
    }
  ],
  "bytecode": "0x608060405234801561001057600080fd5b506040516105643803806105648339810160408181528251818301909152600a82527f6d696e4465706f7369740000000000000000000000000000000000000000000060208301529091018051909161008e918390600090811061007057fe5b9060200190602002015161028c640100000000026401000000009004565b6100d66040805190810160405280600d81526020017f6170706c7953746167654c656e0000000000000000000000000000000000000081525082600181518110151561007057fe5b61011e6040805190810160405280600e81526020017f636f6d6d697453746167654c656e00000000000000000000000000000000000081525082600281518110151561007057fe5b6101666040805190810160405280600e81526020017f72657665616c53746167654c656e00000000000000000000000000000000000081525082600381518110151561007057fe5b6101ae6040805190810160405280600f81526020017f64697370656e736174696f6e506374000000000000000000000000000000000081525082600481518110151561007057fe5b6101f66040805190810160405280600a81526020017f766f746551756f72756d0000000000000000000000000000000000000000000081525082600581518110151561007057fe5b61023e6040805190810160405280600d81526020017f6578697454696d6544656c61790000000000000000000000000000000000000081525082600681518110151561007057fe5b6102866040805190810160405280600d81526020017f65786974506572696f644c656e0000000000000000000000000000000000000081525082600781518110151561007057fe5b50610368565b80600080846040516020018082805190602001908083835b602083106102c35780518252601f1990920191602091820191016102a4565b6001836020036101000a0380198251168184511680821785525050505050509050019150506040516020818303038152906040526040518082805190602001908083835b602083106103265780518252601f199092019160209182019101610307565b51815160209384036101000a60001901801990921691161790526040805192909401829003909120865285019590955292909201600020939093555050505050565b6101ed806103776000396000f30060806040526004361061004b5763ffffffff7c0100000000000000000000000000000000000000000000000000000000600035041663693ec85e8114610050578063dc6ab527146100bb575b600080fd5b34801561005c57600080fd5b506040805160206004803580820135601f81018490048402850184019095528484526100a99436949293602493928401919081908401838280828437509497506100d39650505050505050565b60408051918252519081900360200190f35b3480156100c757600080fd5b506100a96004356101af565b6000806000836040516020018082805190602001908083835b6020831061010b5780518252601f1990920191602091820191016100ec565b6001836020036101000a0380198251168184511680821785525050505050509050019150506040516020818303038152906040526040518082805190602001908083835b6020831061016e5780518252601f19909201916020918201910161014f565b51815160209384036101000a600019018019909216911617905260408051929094018290039091208652850195909552929092016000205495945050505050565b600060208190529081526040902054815600a165627a7a72305820a4865360821bb0b3491eaa3a4e31f6f0688733ba828a50a5f5bdd7df61dfefa10029",
  "source": "pragma solidity ^0.4.24;\n\nimport \"zeppelin-solidity/contracts/math/SafeMath.sol\";\n\ncontract Parameterizer {\n\n    // ------\n    // EVENTS\n    // ------\n\n    // ------\n    // DATA STRUCTURES\n    // ------\n\n    using SafeMath for uint;\n\n    // ------\n    // STATE\n    // ------\n\n    mapping(bytes32 => uint) public params;\n\n    /**\n    @dev Initializer        Can only be called once\n    @notice _parameters     array of canonical parameters\n    */\n    constructor(uint[] _parameters) public {\n        // minimum deposit for listing to be whitelisted\n        set(\"minDeposit\", _parameters[0]);\n\n        // period over which applicants wait to be whitelisted\n        set(\"applyStageLen\", _parameters[1]);\n\n        // length of commit period for voting\n        set(\"commitStageLen\", _parameters[2]);\n\n        // length of reveal period for voting\n        set(\"revealStageLen\", _parameters[3]);\n\n        // percentage of losing party's deposit distributed to winning party\n        set(\"dispensationPct\", _parameters[4]);\n\n        // type of majority out of 100 necessary for candidate success\n        set(\"voteQuorum\", _parameters[5]);\n\n        // minimum length of time user has to wait to exit the registry \n        set(\"exitTimeDelay\", _parameters[6]);\n\n        // maximum length of time user can wait to exit the registry\n        set(\"exitPeriodLen\", _parameters[7]);\n    }\n\n    // --------\n    // GETTERS\n    // --------\n\n    /**\n    @notice gets the parameter keyed by the provided name value from the params mapping\n    @param _name the key whose value is to be determined\n    */\n    function get(string _name) public view returns (uint value) {\n        return params[keccak256(abi.encodePacked(_name))];\n    }\n\n    // ----------------\n    // PRIVATE FUNCTIONS\n    // ----------------\n\n    /**\n    @dev sets the param keted by the provided name to the provided value\n    @param _name the name of the param to be set\n    @param _value the value to set the param to be set\n    */\n    function set(string _name, uint _value) private {\n        params[keccak256(abi.encodePacked(_name))] = _value;\n    }\n}\n\n",
  "sourcePath": "/home/algys/sources/dapp-tcr/contracts/Parameterizer.sol",
  "compiler": {
    "name": "solc",
    "version": "0.4.24+commit.e67f0147.Emscripten.clang"
  },
  "schemaVersion": "2.0.1",
  "updatedAt": "2018-10-28T10:19:18.475Z"
}