{
  "contractName": "RegistryTestHelper",
  "abi": [
    {
      "constant": true,
      "inputs": [
        {
          "name": "listing_id",
          "type": "bytes32"
        }
      ],
      "name": "get_info",
      "outputs": [
        {
          "name": "state",
          "type": "uint256"
        },
        {
          "name": "is_challenged",
          "type": "bool"
        },
        {
          "name": "status_can_be_updated",
          "type": "bool"
        },
        {
          "name": "ipfs_hash",
          "type": "bytes"
        },
        {
          "name": "proposed_ipfs_hash",
          "type": "bytes"
        }
      ],
      "payable": false,
      "stateMutability": "view",
      "type": "function"
    },
    {
      "constant": true,
      "inputs": [],
      "name": "list",
      "outputs": [
        {
          "name": "",
          "type": "bytes32[]"
        }
      ],
      "payable": false,
      "stateMutability": "view",
      "type": "function"
    },
    {
      "constant": true,
      "inputs": [
        {
          "name": "listing_id",
          "type": "bytes32"
        }
      ],
      "name": "challengeExists",
      "outputs": [
        {
          "name": "",
          "type": "bool"
        }
      ],
      "payable": false,
      "stateMutability": "view",
      "type": "function"
    },
    {
      "constant": true,
      "inputs": [
        {
          "name": "listing_id",
          "type": "bytes32"
        }
      ],
      "name": "challenge_status",
      "outputs": [
        {
          "name": "challenge_id",
          "type": "uint256"
        },
        {
          "name": "is_commit",
          "type": "bool"
        },
        {
          "name": "is_reveal",
          "type": "bool"
        },
        {
          "name": "votesFor",
          "type": "uint256"
        },
        {
          "name": "votesAgainst",
          "type": "uint256"
        },
        {
          "name": "commitEndDate",
          "type": "uint256"
        },
        {
          "name": "revealEndDate",
          "type": "uint256"
        }
      ],
      "payable": false,
      "stateMutability": "view",
      "type": "function"
    },
    {
      "constant": true,
      "inputs": [],
      "name": "deposit_size",
      "outputs": [
        {
          "name": "",
          "type": "uint256"
        }
      ],
      "payable": false,
      "stateMutability": "view",
      "type": "function"
    },
    {
      "constant": false,
      "inputs": [
        {
          "name": "listing_id",
          "type": "bytes32"
        },
        {
          "name": "vote_option",
          "type": "uint256"
        },
        {
          "name": "vote_stake",
          "type": "uint256"
        },
        {
          "name": "salt",
          "type": "uint256"
        }
      ],
      "name": "reveal_vote",
      "outputs": [],
      "payable": false,
      "stateMutability": "nonpayable",
      "type": "function"
    },
    {
      "constant": false,
      "inputs": [
        {
          "name": "listing_id",
          "type": "bytes32"
        }
      ],
      "name": "update_status",
      "outputs": [],
      "payable": false,
      "stateMutability": "nonpayable",
      "type": "function"
    },
    {
      "constant": true,
      "inputs": [
        {
          "name": "listing_id",
          "type": "bytes32"
        }
      ],
      "name": "can_update_status",
      "outputs": [
        {
          "name": "",
          "type": "bool"
        }
      ],
      "payable": false,
      "stateMutability": "view",
      "type": "function"
    },
    {
      "constant": true,
      "inputs": [
        {
          "name": "listing_id",
          "type": "bytes32"
        }
      ],
      "name": "challengeCanBeResolved",
      "outputs": [
        {
          "name": "",
          "type": "bool"
        }
      ],
      "payable": false,
      "stateMutability": "view",
      "type": "function"
    },
    {
      "constant": false,
      "inputs": [
        {
          "name": "listing_id",
          "type": "bytes32"
        }
      ],
      "name": "init_exit",
      "outputs": [],
      "payable": false,
      "stateMutability": "nonpayable",
      "type": "function"
    },
    {
      "constant": true,
      "inputs": [
        {
          "name": "",
          "type": "uint256"
        }
      ],
      "name": "challenges",
      "outputs": [
        {
          "name": "rewardPool",
          "type": "uint256"
        },
        {
          "name": "challenger",
          "type": "address"
        },
        {
          "name": "resolved",
          "type": "bool"
        },
        {
          "name": "totalTokens",
          "type": "uint256"
        }
      ],
      "payable": false,
      "stateMutability": "view",
      "type": "function"
    },
    {
      "constant": false,
      "inputs": [
        {
          "name": "listing_id",
          "type": "bytes32"
        },
        {
          "name": "new_ipfs_hash",
          "type": "bytes"
        }
      ],
      "name": "edit",
      "outputs": [],
      "payable": false,
      "stateMutability": "nonpayable",
      "type": "function"
    },
    {
      "constant": true,
      "inputs": [
        {
          "name": "_challengeID",
          "type": "uint256"
        },
        {
          "name": "_voter",
          "type": "address"
        }
      ],
      "name": "tokenClaims",
      "outputs": [
        {
          "name": "",
          "type": "bool"
        }
      ],
      "payable": false,
      "stateMutability": "view",
      "type": "function"
    },
    {
      "constant": true,
      "inputs": [
        {
          "name": "_voter",
          "type": "address"
        },
        {
          "name": "_challengeID",
          "type": "uint256"
        }
      ],
      "name": "voterReward",
      "outputs": [
        {
          "name": "reward",
          "type": "uint256"
        },
        {
          "name": "voterTokens",
          "type": "uint256"
        }
      ],
      "payable": false,
      "stateMutability": "view",
      "type": "function"
    },
    {
      "constant": true,
      "inputs": [
        {
          "name": "",
          "type": "bytes32"
        }
      ],
      "name": "listings",
      "outputs": [
        {
          "name": "ids_position",
          "type": "uint256"
        },
        {
          "name": "ipfs_hash",
          "type": "bytes"
        },
        {
          "name": "owner",
          "type": "address"
        },
        {
          "name": "state",
          "type": "uint8"
        },
        {
          "name": "applicationExpiry",
          "type": "uint256"
        },
        {
          "name": "proposed_ipfs_hash",
          "type": "bytes"
        },
        {
          "name": "proposal_author",
          "type": "address"
        },
        {
          "name": "challengeID",
          "type": "uint256"
        },
        {
          "name": "exitTime",
          "type": "uint256"
        },
        {
          "name": "exitTimeExpiry",
          "type": "uint256"
        }
      ],
      "payable": false,
      "stateMutability": "view",
      "type": "function"
    },
    {
      "constant": false,
      "inputs": [
        {
          "name": "ipfs_hash",
          "type": "bytes"
        }
      ],
      "name": "apply",
      "outputs": [],
      "payable": false,
      "stateMutability": "nonpayable",
      "type": "function"
    },
    {
      "constant": false,
      "inputs": [
        {
          "name": "challenge_id",
          "type": "uint256"
        }
      ],
      "name": "claim_reward",
      "outputs": [],
      "payable": false,
      "stateMutability": "nonpayable",
      "type": "function"
    },
    {
      "constant": true,
      "inputs": [],
      "name": "parameterizer",
      "outputs": [
        {
          "name": "",
          "type": "address"
        }
      ],
      "payable": false,
      "stateMutability": "view",
      "type": "function"
    },
    {
      "constant": false,
      "inputs": [
        {
          "name": "listing_id",
          "type": "bytes32"
        },
        {
          "name": "state_check",
          "type": "uint256"
        }
      ],
      "name": "challenge",
      "outputs": [],
      "payable": false,
      "stateMutability": "nonpayable",
      "type": "function"
    },
    {
      "constant": true,
      "inputs": [
        {
          "name": "",
          "type": "uint256"
        }
      ],
      "name": "ids",
      "outputs": [
        {
          "name": "",
          "type": "bytes32"
        }
      ],
      "payable": false,
      "stateMutability": "view",
      "type": "function"
    },
    {
      "constant": true,
      "inputs": [],
      "name": "token",
      "outputs": [
        {
          "name": "",
          "type": "address"
        }
      ],
      "payable": false,
      "stateMutability": "view",
      "type": "function"
    },
    {
      "constant": true,
      "inputs": [],
      "name": "voting",
      "outputs": [
        {
          "name": "",
          "type": "address"
        }
      ],
      "payable": false,
      "stateMutability": "view",
      "type": "function"
    },
    {
      "constant": false,
      "inputs": [
        {
          "name": "listing_id",
          "type": "bytes32"
        },
        {
          "name": "secret_hash",
          "type": "bytes32"
        }
      ],
      "name": "commit_vote",
      "outputs": [],
      "payable": false,
      "stateMutability": "nonpayable",
      "type": "function"
    },
    {
      "inputs": [
        {
          "name": "_token",
          "type": "address"
        },
        {
          "name": "_voting",
          "type": "address"
        },
        {
          "name": "_parameterizer",
          "type": "address"
        }
      ],
      "payable": false,
      "stateMutability": "nonpayable",
      "type": "constructor"
    },
    {
      "anonymous": false,
      "inputs": [
        {
          "indexed": true,
          "name": "listingHash",
          "type": "bytes32"
        },
        {
          "indexed": false,
          "name": "deposit",
          "type": "uint256"
        },
        {
          "indexed": false,
          "name": "appEndDate",
          "type": "uint256"
        },
        {
          "indexed": false,
          "name": "ipfs_hash",
          "type": "bytes"
        },
        {
          "indexed": true,
          "name": "applicant",
          "type": "address"
        }
      ],
      "name": "_Application",
      "type": "event"
    },
    {
      "anonymous": false,
      "inputs": [
        {
          "indexed": true,
          "name": "listingHash",
          "type": "bytes32"
        },
        {
          "indexed": false,
          "name": "deposit",
          "type": "uint256"
        },
        {
          "indexed": false,
          "name": "appEndDate",
          "type": "uint256"
        },
        {
          "indexed": false,
          "name": "ipfs_hash",
          "type": "bytes"
        },
        {
          "indexed": true,
          "name": "applicant",
          "type": "address"
        }
      ],
      "name": "_EditApplication",
      "type": "event"
    },
    {
      "anonymous": false,
      "inputs": [
        {
          "indexed": true,
          "name": "listingHash",
          "type": "bytes32"
        },
        {
          "indexed": false,
          "name": "challengeID",
          "type": "uint256"
        },
        {
          "indexed": false,
          "name": "commitEndDate",
          "type": "uint256"
        },
        {
          "indexed": false,
          "name": "revealEndDate",
          "type": "uint256"
        },
        {
          "indexed": true,
          "name": "challenger",
          "type": "address"
        }
      ],
      "name": "_Challenge",
      "type": "event"
    },
    {
      "anonymous": false,
      "inputs": [
        {
          "indexed": true,
          "name": "listingHash",
          "type": "bytes32"
        },
        {
          "indexed": false,
          "name": "added",
          "type": "uint256"
        },
        {
          "indexed": false,
          "name": "newTotal",
          "type": "uint256"
        },
        {
          "indexed": true,
          "name": "owner",
          "type": "address"
        }
      ],
      "name": "_Deposit",
      "type": "event"
    },
    {
      "anonymous": false,
      "inputs": [
        {
          "indexed": true,
          "name": "listingHash",
          "type": "bytes32"
        },
        {
          "indexed": false,
          "name": "withdrew",
          "type": "uint256"
        },
        {
          "indexed": false,
          "name": "newTotal",
          "type": "uint256"
        },
        {
          "indexed": true,
          "name": "owner",
          "type": "address"
        }
      ],
      "name": "_Withdrawal",
      "type": "event"
    },
    {
      "anonymous": false,
      "inputs": [
        {
          "indexed": true,
          "name": "listingHash",
          "type": "bytes32"
        }
      ],
      "name": "_ApplicationWhitelisted",
      "type": "event"
    },
    {
      "anonymous": false,
      "inputs": [
        {
          "indexed": true,
          "name": "listingHash",
          "type": "bytes32"
        }
      ],
      "name": "_EditApplicationWhitelisted",
      "type": "event"
    },
    {
      "anonymous": false,
      "inputs": [
        {
          "indexed": true,
          "name": "listingHash",
          "type": "bytes32"
        }
      ],
      "name": "_ApplicationRemoved",
      "type": "event"
    },
    {
      "anonymous": false,
      "inputs": [
        {
          "indexed": true,
          "name": "listingHash",
          "type": "bytes32"
        }
      ],
      "name": "_ListingRemoved",
      "type": "event"
    },
    {
      "anonymous": false,
      "inputs": [
        {
          "indexed": true,
          "name": "listingHash",
          "type": "bytes32"
        },
        {
          "indexed": true,
          "name": "owner",
          "type": "address"
        }
      ],
      "name": "_ListingWithdrawn",
      "type": "event"
    },
    {
      "anonymous": false,
      "inputs": [
        {
          "indexed": true,
          "name": "listingHash",
          "type": "bytes32"
        }
      ],
      "name": "_TouchAndRemoved",
      "type": "event"
    },
    {
      "anonymous": false,
      "inputs": [
        {
          "indexed": true,
          "name": "listingHash",
          "type": "bytes32"
        },
        {
          "indexed": true,
          "name": "challengeID",
          "type": "uint256"
        },
        {
          "indexed": false,
          "name": "rewardPool",
          "type": "uint256"
        },
        {
          "indexed": false,
          "name": "totalTokens",
          "type": "uint256"
        }
      ],
      "name": "_ChallengeFailed",
      "type": "event"
    },
    {
      "anonymous": false,
      "inputs": [
        {
          "indexed": true,
          "name": "listingHash",
          "type": "bytes32"
        },
        {
          "indexed": true,
          "name": "challengeID",
          "type": "uint256"
        },
        {
          "indexed": false,
          "name": "rewardPool",
          "type": "uint256"
        },
        {
          "indexed": false,
          "name": "totalTokens",
          "type": "uint256"
        }
      ],
      "name": "_ChallengeSucceeded",
      "type": "event"
    },
    {
      "anonymous": false,
      "inputs": [
        {
          "indexed": true,
          "name": "challengeID",
          "type": "uint256"
        },
        {
          "indexed": false,
          "name": "reward",
          "type": "uint256"
        },
        {
          "indexed": true,
          "name": "voter",
          "type": "address"
        }
      ],
      "name": "_RewardClaimed",
      "type": "event"
    },
    {
      "anonymous": false,
      "inputs": [
        {
          "indexed": true,
          "name": "listingHash",
          "type": "bytes32"
        },
        {
          "indexed": false,
          "name": "exitTime",
          "type": "uint256"
        },
        {
          "indexed": false,
          "name": "exitDelayEndDate",
          "type": "uint256"
        },
        {
          "indexed": true,
          "name": "owner",
          "type": "address"
        }
      ],
      "name": "_ExitInitialized",
      "type": "event"
    },
    {
      "anonymous": false,
      "inputs": [
        {
          "indexed": true,
          "name": "listing_id",
          "type": "bytes32"
        },
        {
          "indexed": false,
          "name": "new_state",
          "type": "uint8"
        }
      ],
      "name": "_StateChanged",
      "type": "event"
    },
    {
      "constant": false,
      "inputs": [
        {
          "name": "time_",
          "type": "uint256"
        }
      ],
      "name": "setTime",
      "outputs": [],
      "payable": false,
      "stateMutability": "nonpayable",
      "type": "function"
    }
  ],
  "bytecode": "0x60806040523480156200001157600080fd5b5060405160608062003e52833981016040908152815160208301519190920151828282600160a060020a03831615801590620000565750600354600160a060020a0316155b15156200006257600080fd5b600160a060020a03821615801590620000845750600454600160a060020a0316155b15156200009057600080fd5b600160a060020a03811615801590620000b25750600554600160a060020a0316155b1515620000be57600080fd5b60038054600160a060020a03948516600160a060020a031991821617909155600480549385169382169390931790925560058054919093169116179055505050613d44806200010e6000396000f3006080604052600436106101245763ffffffff60e060020a60003504166303405da281146101295780630f560cd71461023c5780631b7bbecb146102a157806321bb7bed146102cd57806331d72b2e1461031d5780633beb26c4146103445780634b19e9331461035e578063540f66911461037f5780635df0721b1461039757806377609a41146103af57806379287e35146103c75780638f1d3776146103df5780639dbbbcf714610425578063a5ba3b1e14610449578063bd0ae4051461046d578063c18b8db4146104aa578063c8b54ccd1461060a578063c9d0ba851461062a578063e1e3f91514610642578063e2083c1814610673578063fac333ac1461068e578063fc0c546a146106a6578063fce1ccca146106bb578063fcf6cf84146106d0575b600080fd5b34801561013557600080fd5b506101416004356106eb565b6040518086815260200185151515158152602001841515151581526020018060200180602001838103835285818151815260200191508051906020019080838360005b8381101561019c578181015183820152602001610184565b50505050905090810190601f1680156101c95780820380516001836020036101000a031916815260200191505b50838103825284518152845160209182019186019080838360005b838110156101fc5781810151838201526020016101e4565b50505050905090810190601f1680156102295780820380516001836020036101000a031916815260200191505b5097505050505050505060405180910390f35b34801561024857600080fd5b506102516108f1565b60408051602080825283518183015283519192839290830191858101910280838360005b8381101561028d578181015183820152602001610275565b505050509050019250505060405180910390f35b3480156102ad57600080fd5b506102b960043561094b565b604080519115158252519081900360200190f35b3480156102d957600080fd5b506102e5600435610964565b604080519788529515156020880152931515868601526060860192909252608085015260a084015260c0830152519081900360e00190f35b34801561032957600080fd5b50610332610a65565b60408051918252519081900360200190f35b34801561035057600080fd5b5061035c600435610b11565b005b34801561036a57600080fd5b5061035c600435602435604435606435610b16565b34801561038b57600080fd5b5061035c600435610c87565b3480156103a357600080fd5b506102b96004356112ea565b3480156103bb57600080fd5b506102b9600435611475565b3480156103d357600080fd5b5061035c60043561153c565b3480156103eb57600080fd5b506103f7600435611782565b60408051948552600160a060020a039093166020850152901515838301526060830152519081900360800190f35b34801561043157600080fd5b5061035c6004803590602480359081019101356117b9565b34801561045557600080fd5b506102b9600435600160a060020a0360243516611ab2565b34801561047957600080fd5b50610491600160a060020a0360043516602435611ae0565b6040805192835260208301919091528051918290030190f35b3480156104b657600080fd5b506104c2600435611c7e565b604051808b8152602001806020018a600160a060020a0316600160a060020a031681526020018960048111156104f457fe5b60ff1681526020018881526020018060200187600160a060020a0316600160a060020a0316815260200186815260200185815260200184815260200183810383528c818151815260200191508051906020019080838360005b8381101561056557818101518382015260200161054d565b50505050905090810190601f1680156105925780820380516001836020036101000a031916815260200191505b5083810382528851815288516020918201918a019080838360005b838110156105c55781810151838201526020016105ad565b50505050905090810190601f1680156105f25780820380516001836020036101000a031916815260200191505b509c5050505050505050505050505060405180910390f35b34801561061657600080fd5b5061035c6004803560248101910135611df9565b34801561063657600080fd5b5061035c600435612194565b34801561064e57600080fd5b5061065761231d565b60408051600160a060020a039092168252519081900360200190f35b34801561067f57600080fd5b5061035c60043560243561232c565b34801561069a57600080fd5b50610332600435612a0f565b3480156106b257600080fd5b50610657612a2e565b3480156106c757600080fd5b50610657612a3d565b3480156106dc57600080fd5b5061035c600435602435612a4c565b60008060006060806106fc86612c84565b61070586612e86565b600481111561071057fe5b945061071b8661094b565b604080517f5df0721b0000000000000000000000000000000000000000000000000000000081526004810189905290519195503091635df0721b916024808201926020929091908290030181600087803b15801561077857600080fd5b505af115801561078c573d6000803e3d6000fd5b505050506040513d60208110156107a257600080fd5b5051600087815260016020818152604092839020820180548451600260001995831615610100029590950190911693909304601f81018390048302840183019094528383529396509092919083018282801561083f5780601f106108145761010080835404028352916020019161083f565b820191906000526020600020905b81548152906001019060200180831161082257829003601f168201915b50505060008981526001602081815260409283902060040180548451600260001995831615610100029590950190911693909304601f8101839004830284018301909452838352959750909493509091508301828280156108e15780601f106108b6576101008083540402835291602001916108e1565b820191906000526020600020905b8154815290600101906020018083116108c457829003601f168201915b5050505050905091939590929450565b6060600280548060200260200160405190810160405280929190818152602001828054801561094057602002820191906000526020600020905b8154815260019091019060200180831161092b575b505050505090505b90565b600081815260016020526040812060060154115b919050565b6000806000806000806000876109798161094b565b151561098457600080fd5b61098d89612c84565b600089815260016020526040808220600601546004805483517f40e76fc40000000000000000000000000000000000000000000000000000000081529182018390529251919b50600160a060020a03909216926340e76fc49260248082019360e093909283900390910190829087803b158015610a0957600080fd5b505af1158015610a1d573d6000803e3d6000fd5b505050506040513d60e0811015610a3357600080fd5b50805160208201516060830151608084015160a085015160c0909501519c9e949d50909a509850909650945092505050565b6005546040805160e160020a63349f642f028152602060048201819052600a60248301527f6d696e4465706f7369740000000000000000000000000000000000000000000060448301529151600093600160a060020a03169263693ec85e926064808201939182900301818787803b158015610ae057600080fd5b505af1158015610af4573d6000803e3d6000fd5b505050506040513d6020811015610b0a57600080fd5b5051905090565b600755565b83610b208161094b565b1515610b2b57600080fd5b610b3485612c84565b600354604080517f23b872dd000000000000000000000000000000000000000000000000000000008152336004820152306024820152604481018690529051600160a060020a03909216916323b872dd916064808201926020929091908290030181600087803b158015610ba757600080fd5b505af1158015610bbb573d6000803e3d6000fd5b505050506040513d6020811015610bd157600080fd5b50511515610bde57600080fd5b600480546000878152600160205260408082206006015481517f36dbd8530000000000000000000000000000000000000000000000000000000081529485015260248401889052604484018790526064840186905233608485015251600160a060020a03909216926336dbd8539260a4808301939282900301818387803b158015610c6857600080fd5b505af1158015610c7c573d6000803e3d6000fd5b505050505050505050565b600080600080600080610c9987612c84565b610ca287612e86565b60008881526001602052604090209096509450610cbe8761094b565b8015610cce5750610cce87611475565b935083610cdc576000610cef565b6000878152600160205260409020600601545b92506001866004811115610cff57fe5b1415610f3657610d0d612ea5565b8560030154108015610d255750610d238761094b565b155b15610d3857610d3387612eab565b6112e1565b8315610f3157610d4787612ef6565b9092509050811515610e7557610d5c87612eab565b60035460028601546040805160e160020a6318eb95970281529051600160a060020a039384169363a9059cbb931691610df19130916331d72b2e9160048083019260209291908290030181600087803b158015610db857600080fd5b505af1158015610dcc573d6000803e3d6000fd5b505050506040513d6020811015610de257600080fd5b5051859063ffffffff61328c16565b6040518363ffffffff1660e060020a0281526004018083600160a060020a0316600160a060020a0316815260200182815260200192505050602060405180830381600087803b158015610e4357600080fd5b505af1158015610e57573d6000803e3d6000fd5b505050506040513d6020811015610e6d57600080fd5b50610d339050565b610e8087600061329e565b6003546000848152602081815260408083206001015481517fa9059cbb000000000000000000000000000000000000000000000000000000008152600160a060020a03918216600482015260248101879052915194169363a9059cbb93604480840194938390030190829087803b158015610efa57600080fd5b505af1158015610f0e573d6000803e3d6000fd5b505050506040513d6020811015610f2457600080fd5b50511515610d3357600080fd5b610124565b6004866004811115610f4457fe5b141561100d576002850154600160a060020a031633148015610f705750610f69612ea5565b8560070154105b8015610f8657508460080154610f84612ea5565b105b15610fc857610f9687600161329e565b604051339088907f7d16ed55582bcf69d7bb762cda5b82042371fba7de3a8ebea4517079d892f52290600090a36112e1565b6002850154600160a060020a031633148015610fef57508460080154610fec612ea5565b10155b15610f31576000600786018190556008860155610d33876002613608565b600386600481111561101b57fe5b141561124157611029612ea5565b8560030154108015611041575061103f8761094b565b155b1561104f57610d33876137ed565b8315610f315761105e87612ef6565b90925090508115156111535760035460058601546040805160e160020a6318eb95970281529051600160a060020a039384169363a9059cbb9316916110c69130916331d72b2e9160048083019260209291908290030181600087803b158015610db857600080fd5b6040518363ffffffff1660e060020a0281526004018083600160a060020a0316600160a060020a0316815260200182815260200192505050602060405180830381600087803b15801561111857600080fd5b505af115801561112c573d6000803e3d6000fd5b505050506040513d602081101561114257600080fd5b5061114e9050876137ed565b610d33565b6003546000848152602081815260408083206001015481517fa9059cbb000000000000000000000000000000000000000000000000000000008152600160a060020a03918216600482015260248101879052915194169363a9059cbb93604480840194938390030190829087803b1580156111cd57600080fd5b505af11580156111e1573d6000803e3d6000fd5b505050506040513d60208110156111f757600080fd5b5051151561120457600080fd5b600585018054600160a060020a0319169055611224600486016000613ba0565b600087815260016020526040812060030155610d33876002613608565b600286600481111561124f57fe5b14156112cc578315610f315761126487612ef6565b9092509050811515610e755760035460028601546040805160e160020a6318eb95970281529051600160a060020a039384169363a9059cbb931691610df19130916331d72b2e9160048083019260209291908290030181600087803b158015610db857600080fd5b60008660048111156112da57fe5b1461012457fe5b50505050505050565b60008060006112f884612c84565b61130184612e86565b6000858152600160205260409020909250905061131d8461094b565b801561132d575061132d84611475565b1561133b576001925061146e565b600182600481111561134957fe5b141561138257611357612ea5565b816003015410801561136f575061136d8461094b565b155b1561137d576001925061146e565b611469565b600482600481111561139057fe5b1415611412576002810154600160a060020a0316331480156113bc57506113b5612ea5565b8160070154105b80156113d2575080600801546113d0612ea5565b105b156113e0576001925061146e565b6002810154600160a060020a03163314801561136f57508060080154611404612ea5565b1061137d576001925061146e565b600282600481111561142057fe5b141561142f576000925061146e565b600382600481111561143d57fe5b141561144b57611357612ea5565b600082600481111561145957fe5b1461146057fe5b6000925061146e565b600092505b5050919050565b600080826114828161094b565b151561148d57600080fd5b6000848152600160209081526040808320600601546004805483517fee6848300000000000000000000000000000000000000000000000000000000081529182018390529251919650600160a060020a039092169363ee68483093602480850194919392918390030190829087803b15801561150857600080fd5b505af115801561151c573d6000803e3d6000fd5b505050506040513d602081101561153257600080fd5b5051949350505050565b60008160028061154b83612e86565b600481111561155657fe5b1461156057600080fd5b8361156a8161094b565b1561157457600080fd5b61157d85612c84565b60008581526001602052604090206002810154909450600160a060020a031633146115a757600080fd5b6005546040805160e160020a63349f642f028152602060048201819052600d60248301527f6578697454696d6544656c6179000000000000000000000000000000000000006044830152915161166493600160a060020a03169263693ec85e92606480820193918290030181600087803b15801561162457600080fd5b505af1158015611638573d6000803e3d6000fd5b505050506040513d602081101561164e57600080fd5b5051611658612ea5565b9063ffffffff6139b616565b60078501556005546040805160e160020a63349f642f028152602060048201819052600d60248301527f65786974506572696f644c656e000000000000000000000000000000000000006044830152915161172393600160a060020a03169263693ec85e92606480820193918290030181600087803b1580156116e657600080fd5b505af11580156116fa573d6000803e3d6000fd5b505050506040513d602081101561171057600080fd5b505160078601549063ffffffff6139b616565b6008850155611733856004613608565b600784015460088501546040805192835260208301919091528051339288927f4b137a01f77b8f1b4ccaca2abac799475d550c8adc298e399e75ee95d317b54692918290030190a35050505050565b6000602081905290815260409020805460018201546002909201549091600160a060020a0381169160a060020a90910460ff169084565b6000836002806117c883612e86565b60048111156117d357fe5b146117dd57600080fd5b856117e78161094b565b156117f157600080fd5b6117fa87612c84565b60008781526001602052604090209350611818600485018787613be7565b5060058085018054600160a060020a03191633179055546040805160e160020a63349f642f028152602060048201819052600d60248301527f6170706c7953746167654c656e00000000000000000000000000000000000000604483015291516118a993600160a060020a03169263693ec85e92606480820193918290030181600087803b15801561162457600080fd5b6003808601919091555460058501546040805160e160020a6318eb95970281529051600160a060020a03938416936323b872dd931691309182916331d72b2e9160048083019260209291908290030181600087803b15801561190a57600080fd5b505af115801561191e573d6000803e3d6000fd5b505050506040513d602081101561193457600080fd5b50516040805160e060020a63ffffffff8716028152600160a060020a0394851660048201529290931660248301526044820152905160648083019260209291908290030181600087803b15801561198a57600080fd5b505af115801561199e573d6000803e3d6000fd5b505050506040513d60208110156119b457600080fd5b505115156119c157600080fd5b6119cc876003613608565b33600160a060020a031687600019167f737315cf706ab3a33d458e436c4d95d99e56ae8703cb3870e95c93d3539a6d7330600160a060020a03166331d72b2e6040518163ffffffff1660e060020a028152600401602060405180830381600087803b158015611a3a57600080fd5b505af1158015611a4e573d6000803e3d6000fd5b505050506040513d6020811015611a6457600080fd5b50516003880154604080518381526020810183905260609181018281529181018c90528c918c919060808201848480828437604051920182900397509095505050505050a350505050505050565b600082815260208181526040808320600160a060020a038516845260030190915290205460ff165b92915050565b6000818152602081815260408083206004805483517fbdd415af000000000000000000000000000000000000000000000000000000008152918201879052600160a060020a0388811660248401529351869593949091169263bdd415af926044808201939182900301818887803b158015611b5a57600080fd5b505af1158015611b6e573d6000803e3d6000fd5b505050506040513d6020811015611b8457600080fd5b50511515611b9157600080fd5b60048054604080517fd1382092000000000000000000000000000000000000000000000000000000008152600160a060020a0389811694820194909452602481018890529051929091169163d1382092916044808201926020929091908290030181600087803b158015611c0457600080fd5b505af1158015611c18573d6000803e3d6000fd5b505050506040513d6020811015611c2e57600080fd5b50516002820154909250821115611c4157fe5b60028101548154611c6a9190611c5e90859063ffffffff6139c316565b9063ffffffff6139ec16565b925081831015611c7657fe5b509250929050565b600160208181526000928352604092839020805481840180548651600296821615610100026000190190911695909504601f81018590048502860185019096528585529094919392909190830182828015611d1a5780601f10611cef57610100808354040283529160200191611d1a565b820191906000526020600020905b815481529060010190602001808311611cfd57829003601f168201915b5050505060028381015460038501546004860180546040805160206101006001851615026000190190931696909604601f81018390048302870183019091528086529697600160a060020a0385169760a060020a90950460ff1696509294929390830182828015611dcc5780601f10611da157610100808354040283529160200191611dcc565b820191906000526020600020905b815481529060010190602001808311611daf57829003601f168201915b505050506005830154600684015460078501546008909501549394600160a060020a03909216939092508a565b60068054600101908190556040805160208082019390935281518082038401815290820191829052805160009384939182918401908083835b60208310611e515780518252601f199092019160209182019101611e32565b5181516020939093036101000a60001901801990911692169190911790526040519201829003909120945060009250611e88915050565b611e9183612e86565b6004811115611e9c57fe5b14611ea357fe5b50600081815260016020819052604090912090611ec39082018585613be7565b50600281018054600160a060020a031916331790556005546040805160e160020a63349f642f028152602060048201819052600d60248301527f6170706c7953746167654c656e0000000000000000000000000000000000000060448301529151611f5593600160a060020a03169263693ec85e92606480820193918290030181600087803b15801561162457600080fd5b6003808301919091555460028201546040805160e160020a6318eb95970281529051600160a060020a03938416936323b872dd931691309182916331d72b2e9160048083019260209291908290030181600087803b158015611fb657600080fd5b505af1158015611fca573d6000803e3d6000fd5b505050506040513d6020811015611fe057600080fd5b50516040805160e060020a63ffffffff8716028152600160a060020a0394851660048201529290931660248301526044820152905160648083019260209291908290030181600087803b15801561203657600080fd5b505af115801561204a573d6000803e3d6000fd5b505050506040513d602081101561206057600080fd5b5051151561206d57600080fd5b60028054808355600180820183556000929092527f405787fa12a823e0f2b7631cc41b3ba8828b3321ca811111fa75cd3aa3bb5ace018390556120b1908390613608565b33600160a060020a031682600019167f4312ccd704584a12352f9061e58caf210d1e8fe14645cb8784e318207ea1912130600160a060020a03166331d72b2e6040518163ffffffff1660e060020a028152600401602060405180830381600087803b15801561211f57600080fd5b505af1158015612133573d6000803e3d6000fd5b505050506040513d602081101561214957600080fd5b50516003850154604080518381526020810183905260609181018281529181018a90528a918a919060808201848480828437604051920182900397509095505050505050a350505050565b6000818152602081905260408120600180820154919291829160a060020a90910460ff161515146121c457600080fd5b33600090815260038401602052604090205460ff16156121e357600080fd5b6121ed3385611ae0565b3360009081526003860160205260409020805460ff1916600117905560028501549193509150612223908263ffffffff61328c16565b6002840155825461223a908363ffffffff61328c16565b8355600354604080517fa9059cbb000000000000000000000000000000000000000000000000000000008152336004820152602481018590529051600160a060020a039092169163a9059cbb916044808201926020929091908290030181600087803b1580156122a957600080fd5b505af11580156122bd573d6000803e3d6000fd5b505050506040513d60208110156122d357600080fd5b505115156122e057600080fd5b604080518381529051339186917f6f4c982acc31b0af2cf1dc1556f21c0325d893782d65e83c68a5534a33f599579181900360200190a350505050565b600554600160a060020a031681565b60008060008060008661233e8161094b565b1561234857600080fd5b61235188612c84565b61235a88612e86565b6000898152600160205260409020909650945086600481111561237957fe5b600481111561238457fe5b86600481111561239057fe5b1461239a57600080fd5b60018660048111156123a857fe5b14806123bf575060028660048111156123bd57fe5b145b806123d5575060038660048111156123d357fe5b145b15156123e057600080fd5b600480546005546040805160e160020a63349f642f0281526020948101859052600a60248201527f766f746551756f72756d0000000000000000000000000000000000000000000060448201529051600160a060020a03938416946332ed3d60949093169263693ec85e92606480820193918290030181600087803b15801561246857600080fd5b505af115801561247c573d6000803e3d6000fd5b505050506040513d602081101561249257600080fd5b50516005546040805160e160020a63349f642f028152602060048201819052600e60248301527f636f6d6d697453746167654c656e00000000000000000000000000000000000060448301529151600160a060020a039093169263693ec85e926064808401939192918290030181600087803b15801561251157600080fd5b505af1158015612525573d6000803e3d6000fd5b505050506040513d602081101561253b57600080fd5b50516005546040805160e160020a63349f642f028152602060048201819052600e60248301527f72657665616c53746167654c656e00000000000000000000000000000000000060448301529151600160a060020a039093169263693ec85e926064808401939192918290030181600087803b1580156125ba57600080fd5b505af11580156125ce573d6000803e3d6000fd5b505050506040513d60208110156125e457600080fd5b50516040805160e060020a63ffffffff87160281526004810194909452602484019290925260448301525160648083019260209291908290030181600087803b15801561263057600080fd5b505af1158015612644573d6000803e3d6000fd5b505050506040513d602081101561265a57600080fd5b5051604080516080810180835260e160020a6318eb9597029052905191955090819061279d90606490611c5e9030906331d72b2e90608480880191602091818a030181600087803b1580156126ae57600080fd5b505af11580156126c2573d6000803e3d6000fd5b505050506040513d60208110156126d857600080fd5b50516005546040805160e160020a63349f642f028152602060048201819052600f60248301527f64697370656e736174696f6e50637400000000000000000000000000000000006044830152915161279193600160a060020a03169263693ec85e92606480820193918290030181600087803b15801561275757600080fd5b505af115801561276b573d6000803e3d6000fd5b505050506040513d602081101561278157600080fd5b505160649063ffffffff61328c16565b9063ffffffff6139c316565b8152336020808301829052600060408085018290526060948501829052898252818352808220865181558684015160018201805489850151600160a060020a0319909116600160a060020a039384161774ff0000000000000000000000000000000000000000191660a060020a91151591909102179055969095015160029095019490945560068a01899055600354845160e160020a6318eb959702815294519516946323b872dd94309384936331d72b2e936004808501949192918390030190829087803b15801561286f57600080fd5b505af1158015612883573d6000803e3d6000fd5b505050506040513d602081101561289957600080fd5b50516040805160e060020a63ffffffff8716028152600160a060020a0394851660048201529290931660248301526044820152905160648083019260209291908290030181600087803b1580156128ef57600080fd5b505af1158015612903573d6000803e3d6000fd5b505050506040513d602081101561291957600080fd5b5051151561292657600080fd5b60048054604080517f40e76fc400000000000000000000000000000000000000000000000000000000815292830187905251600160a060020a03909116916340e76fc49160248083019260e09291908290030181600087803b15801561298b57600080fd5b505af115801561299f573d6000803e3d6000fd5b505050506040513d60e08110156129b557600080fd5b5080516020918201516040805188815293840183905283810182905251919550935033918a917f67a04eb39babf45b833ba4c37d46c458529cf975c0bd58936d1f8d9f53bdf1009181900360600190a35050505050505050565b6002805482908110612a1d57fe5b600091825260209091200154905081565b600354600160a060020a031681565b600454600160a060020a031681565b81612a568161094b565b1515612a6157600080fd5b612a6a83612c84565b600360009054906101000a9004600160a060020a0316600160a060020a03166323b872dd333030600160a060020a03166331d72b2e6040518163ffffffff1660e060020a028152600401602060405180830381600087803b158015612ace57600080fd5b505af1158015612ae2573d6000803e3d6000fd5b505050506040513d6020811015612af857600080fd5b50516040805160e060020a63ffffffff8716028152600160a060020a0394851660048201529290931660248301526044820152905160648083019260209291908290030181600087803b158015612b4e57600080fd5b505af1158015612b62573d6000803e3d6000fd5b505050506040513d6020811015612b7857600080fd5b50511515612b8557600080fd5b60048054600085815260016020908152604080832060060154815160e160020a6318eb95970281529151600160a060020a039095169563d669eae19591948994339430946331d72b2e948281019491928390030190829087803b158015612beb57600080fd5b505af1158015612bff573d6000803e3d6000fd5b505050506040513d6020811015612c1557600080fd5b50516040805160e060020a63ffffffff881602815260048101959095526024850193909352600160a060020a039091166044840152606483015251608480830192600092919082900301818387803b158015612c7057600080fd5b505af11580156112e1573d6000803e3d6000fd5b600081815260016020526040812060028101549091600160a060020a038216159160a060020a900460ff166004811115612cba57fe5b1414612cc257fe5b600381015415156001600283015460a060020a900460ff166004811115612ce557fe5b1480612d0a57506003600283015460a060020a900460ff166004811115612d0857fe5b145b151514612d1357fe5b600781015415156004600283015460a060020a900460ff166004811115612d3657fe5b1414612d3e57fe5b600881015415156004600283015460a060020a900460ff166004811115612d6157fe5b1414612d6957fe5b60048101546002600019610100600184161502019091160415156003600283015460a060020a900460ff166004811115612d9f57fe5b1414612da757fe5b6005810154600160a060020a031615156003600283015460a060020a900460ff166004811115612dd357fe5b1414612ddb57fe5b6004600282015460a060020a900460ff166004811115612df757fe5b1480612e1c57506000600282015460a060020a900460ff166004811115612e1a57fe5b145b15612e3157612e2a8261094b565b15612e3157fe5b6000600282015460a060020a900460ff166004811115612e4d57fe5b14612e8257600254815410612e5e57fe5b8054600280548492908110612e6f57fe5b60009182526020909120015414612e8257fe5b5050565b60009081526001602052604090206002015460a060020a900460ff1690565b60075490565b600081815260016020526040812060030155612ec8816002613608565b60405181907fa7bc1d57d9006d9d248707c7b6828c1bab8c51719cc06d78c82a3ee891ef967c90600090a250565b6000818152600160205260408120600601548190612f1381613a01565b6000828152602081815260408083206001908101805474ff0000000000000000000000000000000000000000191660a060020a17905588845282528083206006018390556004805482517f053e71a60000000000000000000000000000000000000000000000000000000081529182018790529151949650600160a060020a039091169363053e71a693602480840194938390030190829087803b158015612fba57600080fd5b505af1158015612fce573d6000803e3d6000fd5b505050506040513d6020811015612fe457600080fd5b5051600082815260208181526040808320600201939093556004805484517f5135d91f0000000000000000000000000000000000000000000000000000000081529182018690529351600160a060020a0390941693635135d91f93602480840194938390030190829087803b15801561305c57600080fd5b505af1158015613070573d6000803e3d6000fd5b505050506040513d602081101561308657600080fd5b505160008281526020818152604080832080549094019093556004805484517f0b6783e10000000000000000000000000000000000000000000000000000000081529182018690529351600160a060020a0390941693630b6783e193602480840194938390030190829087803b1580156130ff57600080fd5b505af1158015613113573d6000803e3d6000fd5b505050506040513d602081101561312957600080fd5b505160008281526020818152604080832080549094019093556004805484517f3c5940590000000000000000000000000000000000000000000000000000000081529182018690529351600160a060020a0390941693633c59405993602480840194938390030190829087803b1580156131a257600080fd5b505af11580156131b6573d6000803e3d6000fd5b505050506040513d60208110156131cc57600080fd5b505115925082613230576000818152602081815260409182902080546002909101548351918252918101919091528151839287927fc4497224aa78dd50c9b3e344aab02596201ca1e6dca4057a91a6c02f83f4f6c1929081900390910190a3613286565b6000818152602081815260409182902080546002909101548351918252918101919091528151839287927f362a12431f779a2baff4f77f75ba7960ae993a5c41b425df11f7fd0af2b9cbe6929081900390910190a35b50915091565b60008282111561329857fe5b50900390565b60008281526001602052604081209080806132b886612e86565b6002850154909350600160a060020a031691508115156132d457fe5b5060028084018054600160a060020a03191690556000868152600160205260409020549054811061330157fe5b60025460001901811461337e5760028054829160019160009190600019810190811061332957fe5b6000918252602080832090910154835282019290925260400190205560028054600019810190811061335757fe5b906000526020600020015460028281548110151561337157fe5b6000918252602090912001555b6002805460009190600019810190811061339457fe5b60009182526020909120015560028054906133b3906000198301613c65565b506000868152600160208190526040822082815591906133d590830182613ba0565b60028201805474ffffffffffffffffffffffffffffffffffffffffff1916905560006003830181905561340c906004840190613ba0565b50600581018054600160a060020a03191690556000600682018190556007820181905560089091015560028401805484919074ff0000000000000000000000000000000000000000191660a060020a83600481111561346757fe5b0217905550613477866000613608565b841561359057600360009054906101000a9004600160a060020a0316600160a060020a031663a9059cbb8330600160a060020a03166331d72b2e6040518163ffffffff1660e060020a028152600401602060405180830381600087803b1580156134e057600080fd5b505af11580156134f4573d6000803e3d6000fd5b505050506040513d602081101561350a57600080fd5b50516040805160e060020a63ffffffff8616028152600160a060020a03909316600484015260248301919091525160448083019260209291908290030181600087803b15801561355957600080fd5b505af115801561356d573d6000803e3d6000fd5b505050506040513d602081101561358357600080fd5b5051151561359057600080fd5b82600481111561359c57fe5b600114156135d45760405186907f2e5ec035f6eac8ff1cf7cdf36cfeca7c85413f9f67652dc2c13d20f337204a2690600090a2613600565b60405186907fd1ffb796b7108387b2f02adf47b4b81a1690cf2a190422c87a4f670780103e6390600090a25b505050505050565b600061361383612e86565b905081600481111561362157fe5b81600481111561362d57fe5b141561363557fe5b80600481111561364157fe5b15156136625781600481111561365357fe5b60015b1461365d57fe5b613751565b80600481111561366e57fe5b600114156136a75781600481111561368257fe5b60025b148061369f575081600481111561369857fe5b6000613656565b151561365d57fe5b8060048111156136b357fe5b600214156136f5578160048111156136c757fe5b600314806136e357508160048111156136dc57fe5b6004613685565b8061369f575081600481111561369857fe5b80600481111561370157fe5b6003141561371c5781600481111561371557fe5b6002613656565b80600481111561372857fe5b6004141561374f5781600481111561373c57fe5b158061369f575081600481111561371557fe5bfe5b6000838152600160205260409020600201805483919074ff0000000000000000000000000000000000000000191660a060020a83600481111561379057fe5b021790555082600019167f5259e6bce9118f32463f9a5d22fec1650fc0a470c6365f2ccd83d4cf75dd674783604051808260048111156137cc57fe5b60ff16815260200191505060405180910390a26137e883612c84565b505050565b60008181526001602090815260408083206003546002820154835160e160020a6318eb959702815293519295600160a060020a039283169563a9059cbb95939092169330936331d72b2e936004808301949193928390030190829087803b15801561385757600080fd5b505af115801561386b573d6000803e3d6000fd5b505050506040513d602081101561388157600080fd5b50516040805160e060020a63ffffffff8616028152600160a060020a03909316600484015260248301919091525160448083019260209291908290030181600087803b1580156138d057600080fd5b505af11580156138e4573d6000803e3d6000fd5b505050506040513d60208110156138fa57600080fd5b5051151561390757600080fd5b60058101805460028084018054600160a060020a0319908116600160a060020a0385161790915590911690915560048201805461395b92600180860193926000199181161561010002919091011604613c89565b5061396a600482016000613ba0565b600082815260016020526040812060030155613987826002613608565b60405182907f5d75a4e0e0c1cc54dde0425a93949dc552565df87760b1cb07564b24e04add0090600090a25050565b81810182811015611ada57fe5b60008215156139d457506000611ada565b508181028183828115156139e457fe5b0414611ada57fe5b600081838115156139f957fe5b049392505050565b60048054604080517f053e71a600000000000000000000000000000000000000000000000000000000815292830184905251600092600160a060020a039092169163053e71a691602480830192602092919082900301818787803b158015613a6857600080fd5b505af1158015613a7c573d6000803e3d6000fd5b505050506040513d6020811015613a9257600080fd5b50511515613b0e5730600160a060020a03166331d72b2e6040518163ffffffff1660e060020a028152600401602060405180830381600087803b158015613ad857600080fd5b505af1158015613aec573d6000803e3d6000fd5b505050506040513d6020811015613b0257600080fd5b5051600202905061095f565b611ada6000808481526020019081526020016000206000015430600160a060020a03166331d72b2e6040518163ffffffff1660e060020a028152600401602060405180830381600087803b158015613b6557600080fd5b505af1158015613b79573d6000803e3d6000fd5b505050506040513d6020811015613b8f57600080fd5b50516002029063ffffffff61328c16565b50805460018160011615610100020316600290046000825580601f10613bc65750613be4565b601f016020900490600052602060002090810190613be49190613cfe565b50565b828054600181600116156101000203166002900490600052602060002090601f016020900481019282601f10613c285782800160ff19823516178555613c55565b82800160010185558215613c55579182015b82811115613c55578235825591602001919060010190613c3a565b50613c61929150613cfe565b5090565b8154818355818111156137e8576000838152602090206137e8918101908301613cfe565b828054600181600116156101000203166002900490600052602060002090601f016020900481019282601f10613cc25780548555613c55565b82800160010185558215613c5557600052602060002091601f016020900482015b82811115613c55578254825591600101919060010190613ce3565b61094891905b80821115613c615760008155600101613d045600a165627a7a72305820c191db543e4ba135996e646e5a9ea7a094e1a392f281e9b63b8e004198933b500029",
  "source": "pragma solidity ^0.4.24;\n\nimport \"../Registry.sol\";\n\ncontract RegistryTestHelper is Registry {\n\n    constructor(address _token, address _voting, address _parameterizer) public\n        Registry(_token, _voting, _parameterizer) {\n    }\n\n    function time() internal view returns (uint) {\n        return m_time;\n    }\n\n    function setTime(uint time_) external {\n        m_time = time_;\n    }\n\n    uint m_time;\n}\n",
  "sourcePath": "/home/algys/sources/dapp-tcr/contracts/test_helpers/RegistryTestHelper.sol",
  "compiler": {
    "name": "solc",
    "version": "0.4.24+commit.e67f0147.Emscripten.clang"
  },
  "schemaVersion": "2.0.1",
  "updatedAt": "2018-10-28T10:19:18.477Z"
}