{
  "contractName": "Voting",
  "abi": [
    {
      "constant": true,
      "inputs": [
        {
          "name": "",
          "type": "uint256"
        }
      ],
      "name": "pollMap",
      "outputs": [
        {
          "name": "commitEndDate",
          "type": "uint256"
        },
        {
          "name": "revealEndDate",
          "type": "uint256"
        },
        {
          "name": "voteQuorum",
          "type": "uint256"
        },
        {
          "name": "votesFor",
          "type": "uint256"
        },
        {
          "name": "votesAgainst",
          "type": "uint256"
        },
        {
          "name": "staticFees",
          "type": "uint256"
        }
      ],
      "payable": false,
      "stateMutability": "view",
      "type": "function"
    },
    {
      "constant": true,
      "inputs": [],
      "name": "registry",
      "outputs": [
        {
          "name": "",
          "type": "address"
        }
      ],
      "payable": false,
      "stateMutability": "view",
      "type": "function"
    },
    {
      "constant": true,
      "inputs": [],
      "name": "pollNonce",
      "outputs": [
        {
          "name": "",
          "type": "uint256"
        }
      ],
      "payable": false,
      "stateMutability": "view",
      "type": "function"
    },
    {
      "anonymous": false,
      "inputs": [
        {
          "indexed": true,
          "name": "pollID",
          "type": "uint256"
        },
        {
          "indexed": true,
          "name": "voter",
          "type": "address"
        }
      ],
      "name": "_VoteCommitted",
      "type": "event"
    },
    {
      "anonymous": false,
      "inputs": [
        {
          "indexed": true,
          "name": "pollID",
          "type": "uint256"
        },
        {
          "indexed": false,
          "name": "numTokens",
          "type": "uint256"
        },
        {
          "indexed": false,
          "name": "votesFor",
          "type": "uint256"
        },
        {
          "indexed": false,
          "name": "votesAgainst",
          "type": "uint256"
        },
        {
          "indexed": true,
          "name": "choice",
          "type": "uint256"
        },
        {
          "indexed": true,
          "name": "voter",
          "type": "address"
        },
        {
          "indexed": false,
          "name": "salt",
          "type": "uint256"
        }
      ],
      "name": "_VoteRevealed",
      "type": "event"
    },
    {
      "anonymous": false,
      "inputs": [
        {
          "indexed": false,
          "name": "commitEndDate",
          "type": "uint256"
        },
        {
          "indexed": false,
          "name": "revealEndDate",
          "type": "uint256"
        },
        {
          "indexed": true,
          "name": "pollID",
          "type": "uint256"
        }
      ],
      "name": "_PollCreated",
      "type": "event"
    },
    {
      "anonymous": false,
      "inputs": [
        {
          "indexed": false,
          "name": "numTokens",
          "type": "uint256"
        },
        {
          "indexed": true,
          "name": "voter",
          "type": "address"
        }
      ],
      "name": "_VotingRightsGranted",
      "type": "event"
    },
    {
      "anonymous": false,
      "inputs": [
        {
          "indexed": false,
          "name": "numTokens",
          "type": "uint256"
        },
        {
          "indexed": true,
          "name": "voter",
          "type": "address"
        }
      ],
      "name": "_VotingRightsWithdrawn",
      "type": "event"
    },
    {
      "anonymous": false,
      "inputs": [
        {
          "indexed": true,
          "name": "pollID",
          "type": "uint256"
        },
        {
          "indexed": true,
          "name": "voter",
          "type": "address"
        }
      ],
      "name": "_TokensRescued",
      "type": "event"
    },
    {
      "anonymous": false,
      "inputs": [
        {
          "indexed": true,
          "name": "pollID",
          "type": "uint256"
        },
        {
          "indexed": true,
          "name": "voter",
          "type": "address"
        },
        {
          "indexed": false,
          "name": "numTokens",
          "type": "uint256"
        }
      ],
      "name": "_StakeWithdrawed",
      "type": "event"
    },
    {
      "constant": false,
      "inputs": [
        {
          "name": "registry_",
          "type": "address"
        }
      ],
      "name": "set_registry",
      "outputs": [],
      "payable": false,
      "stateMutability": "nonpayable",
      "type": "function"
    },
    {
      "constant": false,
      "inputs": [
        {
          "name": "_pollID",
          "type": "uint256"
        },
        {
          "name": "_secretHash",
          "type": "bytes32"
        },
        {
          "name": "voter",
          "type": "address"
        },
        {
          "name": "_staticFee",
          "type": "uint256"
        }
      ],
      "name": "commitVote",
      "outputs": [],
      "payable": false,
      "stateMutability": "nonpayable",
      "type": "function"
    },
    {
      "constant": false,
      "inputs": [
        {
          "name": "_pollID",
          "type": "uint256"
        },
        {
          "name": "_voteOption",
          "type": "uint256"
        },
        {
          "name": "_voteStake",
          "type": "uint256"
        },
        {
          "name": "_salt",
          "type": "uint256"
        },
        {
          "name": "_voter",
          "type": "address"
        }
      ],
      "name": "revealVote",
      "outputs": [],
      "payable": false,
      "stateMutability": "nonpayable",
      "type": "function"
    },
    {
      "constant": false,
      "inputs": [
        {
          "name": "voteQuorum",
          "type": "uint256"
        },
        {
          "name": "_commitDuration",
          "type": "uint256"
        },
        {
          "name": "_revealDuration",
          "type": "uint256"
        }
      ],
      "name": "startPoll",
      "outputs": [
        {
          "name": "pollID",
          "type": "uint256"
        }
      ],
      "payable": false,
      "stateMutability": "nonpayable",
      "type": "function"
    },
    {
      "constant": true,
      "inputs": [
        {
          "name": "_pollID",
          "type": "uint256"
        }
      ],
      "name": "result",
      "outputs": [
        {
          "name": "passed",
          "type": "bool"
        }
      ],
      "payable": false,
      "stateMutability": "view",
      "type": "function"
    },
    {
      "constant": true,
      "inputs": [
        {
          "name": "_pollId",
          "type": "uint256"
        }
      ],
      "name": "getOverallStake",
      "outputs": [
        {
          "name": "",
          "type": "uint256"
        }
      ],
      "payable": false,
      "stateMutability": "view",
      "type": "function"
    },
    {
      "constant": true,
      "inputs": [
        {
          "name": "_pollId",
          "type": "uint256"
        },
        {
          "name": "voter",
          "type": "address"
        }
      ],
      "name": "isWinner",
      "outputs": [
        {
          "name": "",
          "type": "bool"
        }
      ],
      "payable": false,
      "stateMutability": "view",
      "type": "function"
    },
    {
      "constant": true,
      "inputs": [
        {
          "name": "_pollID",
          "type": "uint256"
        }
      ],
      "name": "getTotalNumberOfTokensForWinningOption",
      "outputs": [
        {
          "name": "numTokens",
          "type": "uint256"
        }
      ],
      "payable": false,
      "stateMutability": "view",
      "type": "function"
    },
    {
      "constant": true,
      "inputs": [
        {
          "name": "_pollID",
          "type": "uint256"
        }
      ],
      "name": "getStaticFees",
      "outputs": [
        {
          "name": "",
          "type": "uint256"
        }
      ],
      "payable": false,
      "stateMutability": "view",
      "type": "function"
    },
    {
      "constant": true,
      "inputs": [
        {
          "name": "_pollID",
          "type": "uint256"
        }
      ],
      "name": "pollInfo",
      "outputs": [
        {
          "name": "commitEndDate",
          "type": "uint256"
        },
        {
          "name": "revealEndDate",
          "type": "uint256"
        },
        {
          "name": "voteQuorum",
          "type": "uint256"
        },
        {
          "name": "votesFor",
          "type": "uint256"
        },
        {
          "name": "votesAgainst",
          "type": "uint256"
        },
        {
          "name": "commitPeriodActive_",
          "type": "bool"
        },
        {
          "name": "revealPeriodActive_",
          "type": "bool"
        }
      ],
      "payable": false,
      "stateMutability": "view",
      "type": "function"
    },
    {
      "constant": true,
      "inputs": [
        {
          "name": "_pollID",
          "type": "uint256"
        }
      ],
      "name": "pollEnded",
      "outputs": [
        {
          "name": "ended",
          "type": "bool"
        }
      ],
      "payable": false,
      "stateMutability": "view",
      "type": "function"
    },
    {
      "constant": true,
      "inputs": [
        {
          "name": "_pollID",
          "type": "uint256"
        }
      ],
      "name": "commitPeriodActive",
      "outputs": [
        {
          "name": "active",
          "type": "bool"
        }
      ],
      "payable": false,
      "stateMutability": "view",
      "type": "function"
    },
    {
      "constant": true,
      "inputs": [
        {
          "name": "_pollID",
          "type": "uint256"
        }
      ],
      "name": "revealPeriodActive",
      "outputs": [
        {
          "name": "active",
          "type": "bool"
        }
      ],
      "payable": false,
      "stateMutability": "view",
      "type": "function"
    },
    {
      "constant": true,
      "inputs": [
        {
          "name": "_voter",
          "type": "address"
        },
        {
          "name": "_pollID",
          "type": "uint256"
        }
      ],
      "name": "didCommit",
      "outputs": [
        {
          "name": "committed",
          "type": "bool"
        }
      ],
      "payable": false,
      "stateMutability": "view",
      "type": "function"
    },
    {
      "constant": true,
      "inputs": [
        {
          "name": "_voter",
          "type": "address"
        },
        {
          "name": "_pollID",
          "type": "uint256"
        }
      ],
      "name": "didReveal",
      "outputs": [
        {
          "name": "revealed",
          "type": "bool"
        }
      ],
      "payable": false,
      "stateMutability": "view",
      "type": "function"
    },
    {
      "constant": true,
      "inputs": [
        {
          "name": "_pollID",
          "type": "uint256"
        }
      ],
      "name": "pollExists",
      "outputs": [
        {
          "name": "exists",
          "type": "bool"
        }
      ],
      "payable": false,
      "stateMutability": "view",
      "type": "function"
    },
    {
      "constant": true,
      "inputs": [
        {
          "name": "_voter",
          "type": "address"
        },
        {
          "name": "_pollID",
          "type": "uint256"
        }
      ],
      "name": "getCommitHash",
      "outputs": [
        {
          "name": "commitHash",
          "type": "bytes32"
        }
      ],
      "payable": false,
      "stateMutability": "view",
      "type": "function"
    },
    {
      "constant": true,
      "inputs": [
        {
          "name": "_voter",
          "type": "address"
        },
        {
          "name": "_pollID",
          "type": "uint256"
        }
      ],
      "name": "getNumTokens",
      "outputs": [
        {
          "name": "numTokens",
          "type": "uint256"
        }
      ],
      "payable": false,
      "stateMutability": "view",
      "type": "function"
    },
    {
      "constant": true,
      "inputs": [
        {
          "name": "_terminationDate",
          "type": "uint256"
        }
      ],
      "name": "isExpired",
      "outputs": [
        {
          "name": "expired",
          "type": "bool"
        }
      ],
      "payable": false,
      "stateMutability": "view",
      "type": "function"
    },
    {
      "constant": true,
      "inputs": [
        {
          "name": "_user",
          "type": "address"
        },
        {
          "name": "_pollID",
          "type": "uint256"
        }
      ],
      "name": "attrUUID",
      "outputs": [
        {
          "name": "UUID",
          "type": "bytes32"
        }
      ],
      "payable": false,
      "stateMutability": "pure",
      "type": "function"
    }
  ],
  "bytecode": "0x608060405234801561001057600080fd5b50611016806100206000396000f3006080604052600436106101325763ffffffff7c0100000000000000000000000000000000000000000000000000000000600035041663053e71a681146101375780630b6783e11461016157806332ed3d601461017957806336dbd853146101975780633c594059146101c657806340e76fc4146101f2578063441c77c0146102465780635135d91f1461025e5780636148fed5146102765780637b103999146102c15780637f97e836146102f257806388d21ff31461031657806397508f361461032e578063a1103f3714610343578063a4439dc514610367578063aa7ca4641461037f578063bdd415af146103a3578063d1382092146103c7578063d669eae1146103eb578063d901402b14610415578063d9548e5314610439578063ee68483014610451578063f1e300bb14610469575b600080fd5b34801561014357600080fd5b5061014f60043561048a565b60408051918252519081900360200190f35b34801561016d57600080fd5b5061014f600435610534565b34801561018557600080fd5b5061014f600435602435604435610549565b3480156101a357600080fd5b506101c4600435602435604435606435600160a060020a036084351661064c565b005b3480156101d257600080fd5b506101de6004356108bf565b604080519115158252519081900360200190f35b3480156101fe57600080fd5b5061020a600435610903565b6040805197885260208801969096528686019490945260608601929092526080850152151560a0840152151560c0830152519081900360e00190f35b34801561025257600080fd5b506101de600435610955565b34801561026a57600080fd5b5061014f60043561099f565b34801561028257600080fd5b5061028e6004356109d5565b604080519687526020870195909552858501939093526060850191909152608084015260a0830152519081900360c00190f35b3480156102cd57600080fd5b506102d6610a0a565b60408051600160a060020a039092168252519081900360200190f35b3480156102fe57600080fd5b506101de600160a060020a0360043516602435610a19565b34801561032257600080fd5b506101de600435610a5c565b34801561033a57600080fd5b5061014f610a71565b34801561034f57600080fd5b5061014f600160a060020a0360043516602435610a77565b34801561037357600080fd5b506101de600435610b15565b34801561038b57600080fd5b506101de600160a060020a0360043516602435610b43565b3480156103af57600080fd5b506101de600435600160a060020a0360243516610b86565b3480156103d357600080fd5b5061014f600160a060020a0360043516602435610c91565b3480156103f757600080fd5b506101c4600435602435600160a060020a0360443516606435610ce3565b34801561042157600080fd5b5061014f600160a060020a0360043516602435610def565b34801561044557600080fd5b506101de600435610e41565b34801561045d57600080fd5b506101de600435610e53565b34801561047557600080fd5b506101c4600160a060020a0360043516610e84565b60008181526020818152604080832081517f3c59405900000000000000000000000000000000000000000000000000000000815260048101869052915190923092633c594059926024808301939282900301818887803b1580156104ed57600080fd5b505af1158015610501573d6000803e3d6000fd5b505050506040513d602081101561051757600080fd5b505161052757806004015461052d565b80600301545b9392505050565b60009081526020819052604090206005015490565b60025460009081908190600160a060020a0316331461056757600080fd5b60018054810190556105878561057b610ede565b9063ffffffff610ee216565b9150610599828563ffffffff610ee216565b6040805160c08101825284815260208082018481528284018b81526000606085018181526080860182815260a08701838152600180548552848852938990209751885594518784015592516002870155516003860155905160048501559051600590930192909255905482518681529182018490528251939450927f0fb3f5c47b2720de38c32cdae8b4e89f4ba01ea5167589b854c6899185615782929181900390910190a25050600154949350505050565b600254600090600160a060020a0316331461066657600080fd5b61066f86610955565b151561067a57600080fd5b600086815260208181526040808320600160a060020a038616845260060190915290205460ff1615156106ac57600080fd5b600086815260208181526040808320600160a060020a038616845260070190915290205460ff16156106dd57600080fd5b6106e78287610def565b604080516020808201899052818301889052606080830188905283518084039091018152608090920192839052815191929182918401908083835b602083106107415780518252601f199092019160209182019101610722565b6001836020036101000a03801982511681845116808217855250505050505090500191505060405180910390206000191614151561077e57600080fd5b6107888287610a77565b90506107948287610c91565b1561079b57fe5b60408051808201909152600981527f6e756d546f6b656e73000000000000000000000000000000000000000000000060208201526107e49060039083908763ffffffff610eef16565b8460011415610809576000868152602081905260409020600301805485019055610821565b60008681526020819052604090206004018054850190555b600086815260208181526040808320600160a060020a038616808552600782018452828520805460ff191660011790558085526008820184528285208a90558a85529383526003810154600490910154825189815293840191909152828201526060820186905251879189917f9b19aaec524fad29c0ced9b9973a15e3045d7c3be156d71394ab40f0d5f119ff9181900360800190a4505050505050565b6000806108cb83610e53565b15156108d657600080fd5b50506000908152602081905260409020600481015460038201546002909201549082010260649091021190565b60008181526020819052604081208054600182015460028301546003840154600485015493959294919390929091819061093c89610b15565b925061094789610955565b915050919395979092949650565b600061096082610a5c565b151561096b57600080fd5b60008281526020819052604090206001015461098690610e41565b158015610999575061099782610b15565b155b92915050565b6000806109ab83610a5c565b15156109b657600080fd5b5050600090815260208190526040902060048101546003909101540190565b600060208190529081526040902080546001820154600283015460038401546004850154600590950154939492939192909186565b600254600160a060020a031681565b6000610a2482610a5c565b1515610a2f57600080fd5b50600090815260208181526040808320600160a060020a0394909416835260069093019052205460ff1690565b60008115801590610999575050600154101590565b60015481565b600082826040516020018083600160a060020a0316600160a060020a03168152602001828152602001925050506040516020818303038152906040526040518082805190602001908083835b60208310610ae25780518252601f199092019160209182019101610ac3565b5181516020939093036101000a600019018019909116921691909117905260405192018290039091209695505050505050565b6000610b2082610a5c565b1515610b2b57600080fd5b60008281526020819052604090205461099790610e41565b6000610b4e82610a5c565b1515610b5957600080fd5b50600090815260208181526040808320600160a060020a0394909416835260079093019052205460ff1690565b6000806000610b9485610e53565b1515610b9f57600080fd5b600085815260208181526040808320600160a060020a0388168452600781019092529091205490925060ff161515610bda5760009250610c89565b50600160a060020a038316600090815260088201602090815260408083205481517f3c5940590000000000000000000000000000000000000000000000000000000081526004810189905291516001909114933093633c594059936024808201949293918390030190829087803b158015610c5457600080fd5b505af1158015610c68573d6000803e3d6000fd5b505050506040513d6020811015610c7e57600080fd5b505115158115151492505b505092915050565b600061052d610ca08484610a77565b60408051808201909152600981527f6e756d546f6b656e73000000000000000000000000000000000000000000000060208201526003919063ffffffff610f6c16565b600254600090600160a060020a03163314610cfd57600080fd5b610d0685610b15565b1515610d1157600080fd5b841515610d1d57600080fd5b831515610d2957600080fd5b610d338386610a77565b60408051808201909152600a81527f636f6d6d697448617368000000000000000000000000000000000000000000006020820152909150610d7f9060039083908763ffffffff610eef16565b600085815260208181526040808320600160a060020a038716808552600682018452828520805460ff191660011790558985529284905260050180548601905551909187917f4199e129668e1d5c4fec4f85901506bf0957531d933d17b0b1843e7e3d37f3639190a35050505050565b600061052d610dfe8484610a77565b60408051808201909152600a81527f636f6d6d6974486173680000000000000000000000000000000000000000000060208201526003919063ffffffff610f6c16565b600081610e4c610ede565b1192915050565b6000610e5e82610a5c565b1515610e6957600080fd5b60008281526020819052604090206001015461099990610e41565b600160a060020a0381161515610e9957600080fd5b600254600160a060020a031615610eaf57600080fd5b6002805473ffffffffffffffffffffffffffffffffffffffff1916600160a060020a0392909216919091179055565b4290565b8181018281101561099957fe5b60405183815282516000918591859190602080830191908401908083835b60208310610f2c5780518252601f199092019160209182019101610f0d565b51815160209384036101000a6000190180199092169116179052604080519290940182900390912060009081529a90525090972093909355505050505050565b6040518281528151600091829185918591602080830191908401908083835b60208310610faa5780518252601f199092019160209182019101610f8b565b51815160209384036101000a6000190180199092169116179052604080519290940182900390912060009081529a905250909720549796505050505050505600a165627a7a72305820fc842cefabfb031307bb38067c52c5ef277ff89621a12c065268e056d25c70b20029",
  "source": "pragma solidity ^0.4.24;\n\nimport \"./AttributeStore.sol\";\nimport \"zeppelin-solidity/contracts/math/SafeMath.sol\";\nimport \"./IVoting.sol\";\n/**\n@title Partial-Lock-Commit-Reveal Voting scheme with ERC20 tokens\n@author Team: Aspyn Palatnick, Cem Ozer, Yorke Rhodes\n*/\ncontract Voting is IVoting {\n\n\n    // ============\n    // EVENTS:\n    // ============\n\n    event _VoteCommitted(uint indexed pollID, address indexed voter);\n    event _VoteRevealed(uint indexed pollID, uint numTokens, uint votesFor, uint votesAgainst, uint indexed choice, address indexed voter, uint salt);\n    event _PollCreated(uint commitEndDate, uint revealEndDate, uint indexed pollID);\n    event _VotingRightsGranted(uint numTokens, address indexed voter);\n    event _VotingRightsWithdrawn(uint numTokens, address indexed voter);\n    event _TokensRescued(uint indexed pollID, address indexed voter);\n    event _StakeWithdrawed(uint indexed pollID, address indexed voter, uint numTokens);\n\n    // ============\n    // MODIFIERS:\n    // ============\n\n    modifier onlyRegistry {\n        require(msg.sender == registry);\n        _;\n    }\n\n    // ============\n    // DATA STRUCTURES:\n    // ============\n\n    using AttributeStore for AttributeStore.Data;\n    using SafeMath for uint;\n\n    mapping(uint => Poll) public pollMap; // maps pollID to Poll struct\n\n    struct Poll {\n        uint commitEndDate;     /// expiration date of commit period for poll\n        uint revealEndDate;     /// expiration date of reveal period for poll\n        uint voteQuorum;\t    /// number of votes required for a proposal to pass\n        uint votesFor;          /// tally of votes supporting proposal\n        uint votesAgainst;      /// tally of votes countering proposal\n        uint staticFees;        /// amount of fees paid for commits\n        mapping(address => bool) didCommit;   /// indicates whether an address committed a vote for this poll\n        mapping(address => bool) didReveal;   /// indicates whether an address revealed a vote for this poll\n        mapping(address => uint) voteOptions; /// stores the voteOption of an address that revealed\n    }\n\n    // ============\n    // STATE VARIABLES:\n    // ============\n\n    uint public pollNonce;\n    address public registry;\n\n    AttributeStore.Data store;\n\n    function set_registry(address registry_) external {\n        require(registry_ != address(0));\n        require(registry == address(0));\n\n        registry = registry_;\n    }\n\n    // =================\n    // VOTING INTERFACE:\n    // =================\n    /**\n    @notice Commits vote using hash of choice and secret salt to conceal vote until reveal\n    @param _pollID Integer identifier associated with target poll\n    @param _secretHash Commit keccak256 hash of voter's choice and salt (tightly packed in this order)\n    */\n    function commitVote(uint _pollID, bytes32 _secretHash, address voter, uint _staticFee) external onlyRegistry {\n        require(commitPeriodActive(_pollID));\n\n        // prevent user from committing to zero node placeholder\n        require(_pollID != 0);\n        // prevent user from committing a secretHash of 0\n        require(_secretHash != 0);\n\n        bytes32 UUID = attrUUID(voter, _pollID);\n\n        store.setAttribute(UUID, \"commitHash\", uint(_secretHash));\n\n        pollMap[_pollID].didCommit[voter] = true;\n        pollMap[_pollID].staticFees += _staticFee;\n\n        emit _VoteCommitted(_pollID, voter);\n    }\n\n\n    /**\n    @notice Reveals vote with choice and secret salt used in generating commitHash to attribute committed tokens\n    @param _pollID Integer identifier associated with target poll\n    @param _voteOption Vote choice used to generate commitHash for associated poll\n    @param _salt Secret number used to generate commitHash for associated poll\n    */\n\n    function revealVote(uint _pollID, uint _voteOption, uint _voteStake, uint _salt, address _voter) external onlyRegistry {\n\n        // Make sure the reveal period is active\n        require(revealPeriodActive(_pollID));\n        require(pollMap[_pollID].didCommit[_voter]);                         // make sure user has committed a vote for this poll\n        require(!pollMap[_pollID].didReveal[_voter]);                        // prevent user from revealing multiple times\n        require(keccak256(abi.encode(_voteOption, _voteStake, _salt)) == getCommitHash(_voter, _pollID)); // compare resultant hash from inputs to original commitHash\n\n        //  uint numTokens = getNumTokens(msg.sender, _pollID);\n        bytes32 UUID = attrUUID(_voter, _pollID);\n\n        assert(0 == getNumTokens(_voter, _pollID));\n        store.setAttribute(UUID, \"numTokens\", _voteStake);\n\n        if (_voteOption == 1) {// apply numTokens to appropriate poll choice\n            pollMap[_pollID].votesFor += _voteStake;\n        } else {\n            pollMap[_pollID].votesAgainst += _voteStake;\n        }\n\n        pollMap[_pollID].didReveal[_voter] = true;\n        pollMap[_pollID].voteOptions[_voter] = _voteOption;\n\n        emit _VoteRevealed(_pollID, _voteStake, pollMap[_pollID].votesFor, pollMap[_pollID].votesAgainst, _voteOption, _voter, _salt);\n    }\n\n\n    // ==================\n    // POLLING INTERFACE:\n    // ==================\n\n    /**\n    @dev Initiates a poll with canonical configured parameters at pollID emitted by PollCreated event\n    @param _commitDuration Length of desired commit period in seconds\n    @param _revealDuration Length of desired reveal period in seconds\n    */\n    function startPoll(uint voteQuorum, uint _commitDuration, uint _revealDuration) external onlyRegistry returns (uint pollID) {\n        pollNonce = pollNonce + 1;\n\n        uint commitEndDate = time().add(_commitDuration);\n        uint revealEndDate = commitEndDate.add(_revealDuration);\n\n        pollMap[pollNonce] = Poll({\n            voteQuorum: voteQuorum,\n            commitEndDate: commitEndDate,\n            revealEndDate: revealEndDate,\n            votesFor: 0,\n            votesAgainst: 0,\n            staticFees: 0\n        });\n\n        emit _PollCreated(commitEndDate, revealEndDate, pollNonce);\n        return pollNonce;\n    }\n\n    /**\n    @notice Determines if proposal has passed\n    @dev Check if votesFor out of totalVotes exceeds votesQuorum (requires pollEnded)\n    @param _pollID Integer identifier associated with target poll\n    */\n    function result(uint _pollID) external view returns (bool passed) {\n        require(pollEnded(_pollID));\n\n        Poll storage poll = pollMap[_pollID];\n        return (100 * poll.votesFor) > (poll.voteQuorum * (poll.votesFor + poll.votesAgainst));\n    }\n\n    function getOverallStake(uint _pollId) external view returns (uint) {\n        require(pollExists(_pollId));\n        Poll storage poll = pollMap[_pollId];\n        return poll.votesFor + poll.votesAgainst;\n    }\n\n    function isWinner(uint _pollId, address voter) external view returns (bool) {\n        require(pollEnded(_pollId));\n        Poll storage poll = pollMap[_pollId];\n\n        if (!poll.didReveal[voter])\n            return false;\n\n        bool vote = poll.voteOptions[voter] == 1;\n\n        return vote == this.result(_pollId);\n    }\n\n    function getTotalNumberOfTokensForWinningOption(uint _pollID) constant external returns (uint numTokens) {\n        Poll storage poll = pollMap[_pollID];\n        return this.result(_pollID) ? poll.votesFor : poll.votesAgainst;\n    }\n\n    function getStaticFees(uint _pollID) constant external returns (uint) {\n        return pollMap[_pollID].staticFees;\n    }\n\n    // ----------------\n    // POLLING HELPERS:\n    // ----------------\n\n    function pollInfo(uint _pollID) external view returns\n        (uint commitEndDate,\n        uint revealEndDate,\n        uint voteQuorum,\n        uint votesFor,\n        uint votesAgainst,\n        bool commitPeriodActive_,\n        bool revealPeriodActive_)\n    {\n        Poll storage poll = pollMap[_pollID];\n        commitEndDate = poll.commitEndDate;\n        revealEndDate = poll.revealEndDate;\n        voteQuorum = poll.voteQuorum;\n        votesFor = poll.votesFor;\n        votesAgainst = poll.votesAgainst;\n        commitPeriodActive_ = commitPeriodActive(_pollID);\n        revealPeriodActive_ = revealPeriodActive(_pollID);\n    }\n\n    /**\n    @notice Determines if poll is over\n    @dev Checks isExpired for specified poll's revealEndDate\n    @return Boolean indication of whether polling period is over\n    */\n    function pollEnded(uint _pollID) constant public returns (bool ended) {\n        require(pollExists(_pollID));\n\n        return isExpired(pollMap[_pollID].revealEndDate);\n    }\n\n    /**\n    @notice Checks if the commit period is still active for the specified poll\n    @dev Checks isExpired for the specified poll's commitEndDate\n    @param _pollID Integer identifier associated with target poll\n    @return Boolean indication of isCommitPeriodActive for target poll\n    */\n    function commitPeriodActive(uint _pollID) constant public returns (bool active) {\n        require(pollExists(_pollID));\n\n        return !isExpired(pollMap[_pollID].commitEndDate);\n    }\n\n    /**\n    @notice Checks if the reveal period is still active for the specified poll\n    @dev Checks isExpired for the specified poll's revealEndDate\n    @param _pollID Integer identifier associated with target poll\n    */\n    function revealPeriodActive(uint _pollID) constant public returns (bool active) {\n        require(pollExists(_pollID));\n\n        return !isExpired(pollMap[_pollID].revealEndDate) && !commitPeriodActive(_pollID);\n    }\n\n    /**\n    @dev Checks if user has committed for specified poll\n    @param _voter Address of user to check against\n    @param _pollID Integer identifier associated with target poll\n    @return Boolean indication of whether user has committed\n    */\n    function didCommit(address _voter, uint _pollID) constant public returns (bool committed) {\n        require(pollExists(_pollID));\n\n        return pollMap[_pollID].didCommit[_voter];\n    }\n\n    /**\n    @dev Checks if user has revealed for specified poll\n    @param _voter Address of user to check against\n    @param _pollID Integer identifier associated with target poll\n    @return Boolean indication of whether user has revealed\n    */\n    function didReveal(address _voter, uint _pollID) constant public returns (bool revealed) {\n        require(pollExists(_pollID));\n\n        return pollMap[_pollID].didReveal[_voter];\n    }\n\n    /**\n    @dev Checks if a poll exists\n    @param _pollID The pollID whose existance is to be evaluated.\n    @return Boolean Indicates whether a poll exists for the provided pollID\n    */\n    function pollExists(uint _pollID) constant public returns (bool exists) {\n        return (_pollID != 0 && _pollID <= pollNonce);\n    }\n\n    // ---------------------------\n    // DOUBLE-LINKED-LIST HELPERS:\n    // ---------------------------\n\n    /**\n    @dev Gets the bytes32 commitHash property of target poll\n    @param _voter Address of user to check against\n    @param _pollID Integer identifier associated with target poll\n    @return Bytes32 hash property attached to target poll\n    */\n    function getCommitHash(address _voter, uint _pollID) constant public returns (bytes32 commitHash) {\n        return bytes32(store.getAttribute(attrUUID(_voter, _pollID), \"commitHash\"));\n    }\n\n    /**\n    @dev Wrapper for getAttribute with attrName=\"numTokens\"\n    @param _voter Address of user to check against\n    @param _pollID Integer identifier associated with target poll\n    @return Number of tokens committed to poll in sorted poll-linked-list\n    */\n    function getNumTokens(address _voter, uint _pollID) constant public returns (uint numTokens) {\n        return store.getAttribute(attrUUID(_voter, _pollID), \"numTokens\");\n    }\n\n\n\n\n\n    // ----------------\n    // GENERAL HELPERS:\n    // ----------------\n\n    /**\n    @dev Checks if an expiration date has been reached\n    @param _terminationDate Integer timestamp of date to compare current timestamp with\n    @return expired Boolean indication of whether the terminationDate has passed\n    */\n    function isExpired(uint _terminationDate) constant public returns (bool expired) {\n        return (time() > _terminationDate);\n    }\n\n    /**\n    @dev Generates an identifier which associates a user and a poll together\n    @param _pollID Integer identifier associated with target poll\n    @return UUID Hash which is deterministic from _user and _pollID\n    */\n    function attrUUID(address _user, uint _pollID) public pure returns (bytes32 UUID) {\n        return keccak256(abi.encode(_user, _pollID));\n    }\n\n    // ----------------\n    // FOR UNIT TESTING:\n    // ----------------\n\n    function time() internal view returns (uint) {\n        return now;\n    }\n}\n",
  "sourcePath": "/home/algys/sources/dapp-tcr/contracts/Voting.sol",
  "compiler": {
    "name": "solc",
    "version": "0.4.24+commit.e67f0147.Emscripten.clang"
  },
  "schemaVersion": "2.0.1",
  "updatedAt": "2018-10-28T10:19:18.483Z"
}