{
  "contractName": "DetsyMarketplace",
  "abi": [
    {
      "constant": true,
      "inputs": [],
      "name": "detsyFeePercent",
      "outputs": [
        {
          "name": "",
          "type": "uint256"
        }
      ],
      "payable": false,
      "stateMutability": "view",
      "type": "function"
    },
    {
      "constant": true,
      "inputs": [
        {
          "name": "",
          "type": "bytes32"
        }
      ],
      "name": "items",
      "outputs": [
        {
          "name": "seller",
          "type": "address"
        },
        {
          "name": "price",
          "type": "uint256"
        },
        {
          "name": "quantity",
          "type": "uint256"
        },
        {
          "name": "arrayIndex",
          "type": "uint256"
        }
      ],
      "payable": false,
      "stateMutability": "view",
      "type": "function"
    },
    {
      "constant": false,
      "inputs": [],
      "name": "renounceOwnership",
      "outputs": [],
      "payable": false,
      "stateMutability": "nonpayable",
      "type": "function"
    },
    {
      "constant": true,
      "inputs": [],
      "name": "owner",
      "outputs": [
        {
          "name": "",
          "type": "address"
        }
      ],
      "payable": false,
      "stateMutability": "view",
      "type": "function"
    },
    {
      "constant": true,
      "inputs": [],
      "name": "daiToken",
      "outputs": [
        {
          "name": "",
          "type": "address"
        }
      ],
      "payable": false,
      "stateMutability": "view",
      "type": "function"
    },
    {
      "constant": false,
      "inputs": [
        {
          "name": "_newOwner",
          "type": "address"
        }
      ],
      "name": "transferOwnership",
      "outputs": [],
      "payable": false,
      "stateMutability": "nonpayable",
      "type": "function"
    },
    {
      "constant": true,
      "inputs": [
        {
          "name": "",
          "type": "uint256"
        }
      ],
      "name": "itemIpfsHashes",
      "outputs": [
        {
          "name": "",
          "type": "bytes32"
        }
      ],
      "payable": false,
      "stateMutability": "view",
      "type": "function"
    },
    {
      "inputs": [
        {
          "name": "_daiToken",
          "type": "address"
        }
      ],
      "payable": false,
      "stateMutability": "nonpayable",
      "type": "constructor"
    },
    {
      "anonymous": false,
      "inputs": [
        {
          "indexed": true,
          "name": "previousOwner",
          "type": "address"
        }
      ],
      "name": "OwnershipRenounced",
      "type": "event"
    },
    {
      "anonymous": false,
      "inputs": [
        {
          "indexed": true,
          "name": "previousOwner",
          "type": "address"
        },
        {
          "indexed": true,
          "name": "newOwner",
          "type": "address"
        }
      ],
      "name": "OwnershipTransferred",
      "type": "event"
    },
    {
      "constant": false,
      "inputs": [
        {
          "name": "_ipfsHash",
          "type": "bytes32"
        },
        {
          "name": "_itemPrice",
          "type": "uint256"
        },
        {
          "name": "_quantity",
          "type": "uint256"
        }
      ],
      "name": "listItem",
      "outputs": [],
      "payable": false,
      "stateMutability": "nonpayable",
      "type": "function"
    },
    {
      "constant": true,
      "inputs": [],
      "name": "getItemsCount",
      "outputs": [
        {
          "name": "",
          "type": "uint256"
        }
      ],
      "payable": false,
      "stateMutability": "view",
      "type": "function"
    },
    {
      "constant": true,
      "inputs": [
        {
          "name": "_ipfsHash",
          "type": "bytes32"
        }
      ],
      "name": "getItem",
      "outputs": [
        {
          "name": "_seller",
          "type": "address"
        },
        {
          "name": "_price",
          "type": "uint256"
        },
        {
          "name": "_quantity",
          "type": "uint256"
        },
        {
          "name": "_index",
          "type": "uint256"
        }
      ],
      "payable": false,
      "stateMutability": "view",
      "type": "function"
    },
    {
      "constant": false,
      "inputs": [
        {
          "name": "_ipfsHash",
          "type": "bytes32"
        },
        {
          "name": "_newQuantity",
          "type": "uint256"
        }
      ],
      "name": "changeItemQuantity",
      "outputs": [],
      "payable": false,
      "stateMutability": "nonpayable",
      "type": "function"
    },
    {
      "constant": false,
      "inputs": [
        {
          "name": "_ipfsHash",
          "type": "bytes32"
        },
        {
          "name": "_quantity",
          "type": "uint256"
        }
      ],
      "name": "buyItem",
      "outputs": [],
      "payable": false,
      "stateMutability": "nonpayable",
      "type": "function"
    },
    {
      "constant": false,
      "inputs": [
        {
          "name": "_itemId",
          "type": "bytes32"
        },
        {
          "name": "_quantity",
          "type": "uint256"
        },
        {
          "name": "_customPrice",
          "type": "uint256"
        },
        {
          "name": "signedDataByOwner",
          "type": "bytes"
        }
      ],
      "name": "buyItemCustomPrice",
      "outputs": [],
      "payable": false,
      "stateMutability": "nonpayable",
      "type": "function"
    },
    {
      "constant": false,
      "inputs": [],
      "name": "withdrawFees",
      "outputs": [],
      "payable": false,
      "stateMutability": "nonpayable",
      "type": "function"
    }
  ],
  "bytecode": "0x6080604052600560015534801561001557600080fd5b5060405160208061131583398101806040528101908080519060200190929190505050336000806101000a81548173ffffffffffffffffffffffffffffffffffffffff021916908373ffffffffffffffffffffffffffffffffffffffff16021790555080600260006101000a81548173ffffffffffffffffffffffffffffffffffffffff021916908373ffffffffffffffffffffffffffffffffffffffff1602179055505061124c806100c96000396000f3006080604052600436106100d0576000357c0100000000000000000000000000000000000000000000000000000000900463ffffffff1680630f2f6adc146100d5578063476343ee1461010057806348f193311461011757806348f343f31461015c5780634b131afe146101e2578063512dd0201461026d578063715018a6146102985780638da5cb5b146102af5780639166168c146103065780639359305a14610341578063aa0372e71461037c578063be22f54614610402578063f2fde38b14610459578063f54aa4a61461049c575b600080fd5b3480156100e157600080fd5b506100ea6104e5565b6040518082815260200191505060405180910390f35b34801561010c57600080fd5b506101156104eb565b005b34801561012357600080fd5b5061015a60048036038101908080356000191690602001909291908035906020019092919080359060200190929190505050610767565b005b34801561016857600080fd5b5061018b6004803603810190808035600019169060200190929190505050610945565b604051808573ffffffffffffffffffffffffffffffffffffffff1673ffffffffffffffffffffffffffffffffffffffff16815260200184815260200183815260200182815260200194505050505060405180910390f35b3480156101ee57600080fd5b5061026b60048036038101908080356000191690602001909291908035906020019092919080359060200190929190803590602001908201803590602001908080601f0160208091040260200160405190810160405280939291908181526020018383808284378201915050505050509192919290505050610995565b005b34801561027957600080fd5b5061028261099b565b6040518082815260200191505060405180910390f35b3480156102a457600080fd5b506102ad6109a8565b005b3480156102bb57600080fd5b506102c4610aaa565b604051808273ffffffffffffffffffffffffffffffffffffffff1673ffffffffffffffffffffffffffffffffffffffff16815260200191505060405180910390f35b34801561031257600080fd5b5061033f600480360381019080803560001916906020019092919080359060200190929190505050610acf565b005b34801561034d57600080fd5b5061037a600480360381019080803560001916906020019092919080359060200190929190505050610bd9565b005b34801561038857600080fd5b506103ab6004803603810190808035600019169060200190929190505050610fa6565b604051808573ffffffffffffffffffffffffffffffffffffffff1673ffffffffffffffffffffffffffffffffffffffff16815260200184815260200183815260200182815260200194505050505060405180910390f35b34801561040e57600080fd5b5061041761100f565b604051808273ffffffffffffffffffffffffffffffffffffffff1673ffffffffffffffffffffffffffffffffffffffff16815260200191505060405180910390f35b34801561046557600080fd5b5061049a600480360381019080803573ffffffffffffffffffffffffffffffffffffffff169060200190929190505050611035565b005b3480156104a857600080fd5b506104c76004803603810190808035906020019092919050505061109c565b60405180826000191660001916815260200191505060405180910390f35b60015481565b60008060009054906101000a900473ffffffffffffffffffffffffffffffffffffffff1673ffffffffffffffffffffffffffffffffffffffff163373ffffffffffffffffffffffffffffffffffffffff1614151561054857600080fd5b600260009054906101000a900473ffffffffffffffffffffffffffffffffffffffff1673ffffffffffffffffffffffffffffffffffffffff166370a08231306040518263ffffffff167c0100000000000000000000000000000000000000000000000000000000028152600401808273ffffffffffffffffffffffffffffffffffffffff1673ffffffffffffffffffffffffffffffffffffffff168152602001915050602060405180830381600087803b15801561060557600080fd5b505af1158015610619573d6000803e3d6000fd5b505050506040513d602081101561062f57600080fd5b81019080805190602001909291905050509050600260009054906101000a900473ffffffffffffffffffffffffffffffffffffffff1673ffffffffffffffffffffffffffffffffffffffff1663a9059cbb6000809054906101000a900473ffffffffffffffffffffffffffffffffffffffff16836040518363ffffffff167c0100000000000000000000000000000000000000000000000000000000028152600401808373ffffffffffffffffffffffffffffffffffffffff1673ffffffffffffffffffffffffffffffffffffffff16815260200182815260200192505050602060405180830381600087803b15801561072857600080fd5b505af115801561073c573d6000803e3d6000fd5b505050506040513d602081101561075257600080fd5b81019080805190602001909291905050505050565b82600073ffffffffffffffffffffffffffffffffffffffff1660036000836000191660001916815260200190815260200160002060000160009054906101000a900473ffffffffffffffffffffffffffffffffffffffff1673ffffffffffffffffffffffffffffffffffffffff1614151561084a576040517f08c379a00000000000000000000000000000000000000000000000000000000081526004018080602001828103825260188152602001807f54686973204974656d20616c726561647920657869737473000000000000000081525060200191505060405180910390fd5b60048490806001815401808255809150509060018203906000526020600020016000909192909190915090600019169055506080604051908101604052803373ffffffffffffffffffffffffffffffffffffffff16815260200184815260200183815260200160016004805490500381525060036000866000191660001916815260200190815260200160002060008201518160000160006101000a81548173ffffffffffffffffffffffffffffffffffffffff021916908373ffffffffffffffffffffffffffffffffffffffff16021790555060208201518160010155604082015181600201556060820151816003015590505050505050565b60036020528060005260406000206000915090508060000160009054906101000a900473ffffffffffffffffffffffffffffffffffffffff16908060010154908060020154908060030154905084565b50505050565b6000600480549050905090565b6000809054906101000a900473ffffffffffffffffffffffffffffffffffffffff1673ffffffffffffffffffffffffffffffffffffffff163373ffffffffffffffffffffffffffffffffffffffff16141515610a0357600080fd5b6000809054906101000a900473ffffffffffffffffffffffffffffffffffffffff1673ffffffffffffffffffffffffffffffffffffffff167ff8df31144d9c2f0f6b59d69b8b98abd5459d07f2742c4df920b25aae33c6482060405160405180910390a260008060006101000a81548173ffffffffffffffffffffffffffffffffffffffff021916908373ffffffffffffffffffffffffffffffffffffffff160217905550565b6000809054906101000a900473ffffffffffffffffffffffffffffffffffffffff1681565b813373ffffffffffffffffffffffffffffffffffffffff1660036000836000191660001916815260200190815260200160002060000160009054906101000a900473ffffffffffffffffffffffffffffffffffffffff1673ffffffffffffffffffffffffffffffffffffffff16141515610bb1576040517f08c379a000000000000000000000000000000000000000000000000000000000815260040180806020018281038252601d8152602001807f54686973204974656d206973206e6f74206f776e656420627920796f7500000081525060200191505060405180910390fd5b8160036000856000191660001916815260200190815260200160002060020181905550505050565b6000806000600360008660001916600019168152602001908152602001600020925083836002015410151515610c9d576040517f08c379a00000000000000000000000000000000000000000000000000000000081526004018080602001828103825260228152602001807f4e6f7420656e6f756768207175616e746974792066726f6d207468697320697481526020017f656d00000000000000000000000000000000000000000000000000000000000081525060400191505060405180910390fd5b610cb48360010154856110bf90919063ffffffff16565b9150610cde6064610cd0600154856110bf90919063ffffffff16565b6110f790919063ffffffff16565b9050600260009054906101000a900473ffffffffffffffffffffffffffffffffffffffff1673ffffffffffffffffffffffffffffffffffffffff166323b872dd3330846040518463ffffffff167c0100000000000000000000000000000000000000000000000000000000028152600401808473ffffffffffffffffffffffffffffffffffffffff1673ffffffffffffffffffffffffffffffffffffffff1681526020018373ffffffffffffffffffffffffffffffffffffffff1673ffffffffffffffffffffffffffffffffffffffff1681526020018281526020019350505050602060405180830381600087803b158015610dd957600080fd5b505af1158015610ded573d6000803e3d6000fd5b505050506040513d6020811015610e0357600080fd5b810190808051906020019092919050505050600260009054906101000a900473ffffffffffffffffffffffffffffffffffffffff1673ffffffffffffffffffffffffffffffffffffffff166323b872dd338560000160009054906101000a900473ffffffffffffffffffffffffffffffffffffffff16610e8c858761110d90919063ffffffff16565b6040518463ffffffff167c0100000000000000000000000000000000000000000000000000000000028152600401808473ffffffffffffffffffffffffffffffffffffffff1673ffffffffffffffffffffffffffffffffffffffff1681526020018373ffffffffffffffffffffffffffffffffffffffff1673ffffffffffffffffffffffffffffffffffffffff1681526020018281526020019350505050602060405180830381600087803b158015610f4457600080fd5b505af1158015610f58573d6000803e3d6000fd5b505050506040513d6020811015610f6e57600080fd5b810190808051906020019092919050505050610f9784846002015461110d90919063ffffffff16565b83600201819055505050505050565b600080600080600060036000876000191660001916815260200190815260200160002090508060000160009054906101000a900473ffffffffffffffffffffffffffffffffffffffff168160010154826002015483600301549450945094509450509193509193565b600260009054906101000a900473ffffffffffffffffffffffffffffffffffffffff1681565b6000809054906101000a900473ffffffffffffffffffffffffffffffffffffffff1673ffffffffffffffffffffffffffffffffffffffff163373ffffffffffffffffffffffffffffffffffffffff1614151561109057600080fd5b61109981611126565b50565b6004818154811015156110ab57fe5b906000526020600020016000915090505481565b6000808314156110d257600090506110f1565b81830290508183828115156110e357fe5b041415156110ed57fe5b8090505b92915050565b6000818381151561110457fe5b04905092915050565b600082821115151561111b57fe5b818303905092915050565b600073ffffffffffffffffffffffffffffffffffffffff168173ffffffffffffffffffffffffffffffffffffffff161415151561116257600080fd5b8073ffffffffffffffffffffffffffffffffffffffff166000809054906101000a900473ffffffffffffffffffffffffffffffffffffffff1673ffffffffffffffffffffffffffffffffffffffff167f8be0079c531659141344cd1fd0a4f28419497f9722a3daafe3b4186f6b6457e060405160405180910390a3806000806101000a81548173ffffffffffffffffffffffffffffffffffffffff021916908373ffffffffffffffffffffffffffffffffffffffff160217905550505600a165627a7a72305820a98c60d1709085bd5aab0cb8dc7145132fec2801bc8bcdf70c59e8a9b1f0f4ca0029",
  "source": "pragma solidity 0.4.25;\n\nimport \"openzeppelin-solidity/contracts/ownership/Ownable.sol\";\nimport \"openzeppelin-solidity/contracts/token/ERC20/StandardToken.sol\";\nimport \"openzeppelin-solidity/contracts/math/SafeMath.sol\";\n\n\n// Simple Detsy  marketplace contract\ncontract DetsyMarketplace is Ownable {\n    using SafeMath for uint256;\n\n    uint256 public detsyFeePercent = 5;\n    StandardToken public daiToken;\n\n    struct Item {\n        address seller;\n        uint256 price;\n        uint256 quantity;\n        uint256 arrayIndex;\n    }\n\n    mapping(bytes32 => Item) public items;\n    bytes32[] public itemIpfsHashes;\n\n    constructor(address _daiToken) public {\n        daiToken = StandardToken(_daiToken);\n    }\n\n    modifier onlyItemOwner(bytes32 _ipfsHash) {\n        require(items[_ipfsHash].seller == msg.sender, \"This Item is not owned by you\");\n        _;\n    }\n\n    modifier onlyNewItem(bytes32 _ipfsHash) {\n        require(items[_ipfsHash].seller == address(0), \"This Item already exists\");\n        _;\n    }\n\n    function listItem(bytes32 _ipfsHash, uint256 _itemPrice, uint256 _quantity) public onlyNewItem(_ipfsHash) {\n        itemIpfsHashes.push(_ipfsHash);\n\n        items[_ipfsHash] = Item({\n            seller : msg.sender,\n            price : _itemPrice,\n            quantity : _quantity,\n            arrayIndex : itemIpfsHashes.length - 1});\n\n        // Emit Event\n    }\n\n    function getItemsCount() public view returns (uint256) {\n        return itemIpfsHashes.length;\n    }\n\n    function getItem(bytes32 _ipfsHash) public view returns (address _seller, uint256 _price, uint256 _quantity, uint256 _index) {\n        Item localItem = items[_ipfsHash];\n\n        return (localItem.seller, localItem.price, localItem.quantity, localItem.arrayIndex);\n    }\n\n    function changeItemQuantity(bytes32 _ipfsHash, uint256 _newQuantity) public onlyItemOwner(_ipfsHash) {\n        items[_ipfsHash].quantity = _newQuantity;\n\n        // Emit Event\n    }\n\n    function buyItem(bytes32 _ipfsHash, uint256 _quantity) public {\n        Item storage sellingItem = items[_ipfsHash];\n        require(sellingItem.quantity >= _quantity, \"Not enough quantity from this item\");\n\n        uint256 cost = _quantity.mul(sellingItem.price);\n        uint256 detsyFee = (cost.mul(detsyFeePercent)).div(100);\n\n        daiToken.transferFrom(msg.sender, this, detsyFee);\n        daiToken.transferFrom(msg.sender, sellingItem.seller, cost.sub(detsyFee));\n\n        sellingItem.quantity = sellingItem.quantity.sub(_quantity);\n\n        // Emit Event\n    }\n\n    function buyItemCustomPrice(bytes32 _itemId, uint256 _quantity, uint256 _customPrice, bytes signedDataByOwner) public {\n        // with ecrecover\n        // Emit Event\n    }\n\n    function withdrawFees() public onlyOwner {\n        uint256 contractBalance = daiToken.balanceOf(this);\n        daiToken.transfer(owner, contractBalance);\n\n        // Emit Event\n    }\n}\n",
  "sourcePath": "/Users/chris/Projects/Hackatons/CryptoLife/dapp/contracts/Marketplace/DetsyMarketplace.sol",
  "compiler": {
    "name": "solc",
    "version": "0.4.25+commit.59dbf8f1.Emscripten.clang"
  },
  "schemaVersion": "0.9.11",
  "updatedAt": "2018-10-27T15:53:49.285Z"
}